{
  "contractName": "Contract2",
  "abi": [
    {
      "inputs": [],
      "stateMutability": "nonpayable",
      "type": "constructor"
    },
    {
      "inputs": [
        {
          "internalType": "uint256",
          "name": "",
          "type": "uint256"
        }
      ],
      "name": "books",
      "outputs": [
        {
          "internalType": "string",
          "name": "title",
          "type": "string"
        },
        {
          "internalType": "string",
          "name": "author",
          "type": "string"
        }
      ],
      "stateMutability": "view",
      "type": "function"
    },
    {
      "inputs": [
        {
          "internalType": "address",
          "name": "",
          "type": "address"
        },
        {
          "internalType": "uint256",
          "name": "",
          "type": "uint256"
        }
      ],
      "name": "myBooks",
      "outputs": [
        {
          "internalType": "string",
          "name": "title",
          "type": "string"
        },
        {
          "internalType": "string",
          "name": "author",
          "type": "string"
        }
      ],
      "stateMutability": "view",
      "type": "function"
    },
    {
      "inputs": [
        {
          "internalType": "uint256",
          "name": "",
          "type": "uint256"
        }
      ],
      "name": "names",
      "outputs": [
        {
          "internalType": "string",
          "name": "",
          "type": "string"
        }
      ],
      "stateMutability": "view",
      "type": "function"
    },
    {
      "inputs": [
        {
          "internalType": "uint256",
          "name": "_id",
          "type": "uint256"
        },
        {
          "internalType": "string",
          "name": "_title",
          "type": "string"
        },
        {
          "internalType": "string",
          "name": "_author",
          "type": "string"
        }
      ],
      "name": "addBook",
      "outputs": [],
      "stateMutability": "nonpayable",
      "type": "function"
    },
    {
      "inputs": [
        {
          "internalType": "uint256",
          "name": "_id",
          "type": "uint256"
        },
        {
          "internalType": "string",
          "name": "_title",
          "type": "string"
        },
        {
          "internalType": "string",
          "name": "_author",
          "type": "string"
        }
      ],
      "name": "addMyBook",
      "outputs": [],
      "stateMutability": "nonpayable",
      "type": "function"
    }
  ],
  "bytecode": "0x60806040523480156200001157600080fd5b506040518060400160405280600481526020017f4164616d00000000000000000000000000000000000000000000000000000000815250600080600181526020019081526020016000209081620000699190620002ea565b50620003d1565b600081519050919050565b7f4e487b7100000000000000000000000000000000000000000000000000000000600052604160045260246000fd5b7f4e487b7100000000000000000000000000000000000000000000000000000000600052602260045260246000fd5b60006002820490506001821680620000f257607f821691505b602082108103620001085762000107620000aa565b5b50919050565b60008190508160005260206000209050919050565b60006020601f8301049050919050565b600082821b905092915050565b600060088302620001727fffffffffffffffffffffffffffffffffffffffffffffffffffffffffffffffff8262000133565b6200017e868362000133565b95508019841693508086168417925050509392505050565b6000819050919050565b6000819050919050565b6000620001cb620001c5620001bf8462000196565b620001a0565b62000196565b9050919050565b6000819050919050565b620001e783620001aa565b620001ff620001f682620001d2565b84845462000140565b825550505050565b600090565b6200021662000207565b62000223818484620001dc565b505050565b5b818110156200024b576200023f6000826200020c565b60018101905062000229565b5050565b601f8211156200029a5762000264816200010e565b6200026f8462000123565b810160208510156200027f578190505b620002976200028e8562000123565b83018262000228565b50505b505050565b600082821c905092915050565b6000620002bf600019846008026200029f565b1980831691505092915050565b6000620002da8383620002ac565b9150826002028217905092915050565b620002f58262000070565b67ffffffffffffffff8111156200031157620003106200007b565b5b6200031d8254620000d9565b6200032a8282856200024f565b600060209050601f8311600181146200036257600084156200034d578287015190505b620003598582620002cc565b865550620003c9565b601f19841662000372866200010e565b60005b828110156200039c5784890151825560018201915060208501945060208101905062000375565b86831015620003bc5784890151620003b8601f891682620002ac565b8355505b6001600288020188555050505b505050505050565b610c0b80620003e16000396000f3fe608060405234801561001057600080fd5b50600436106100575760003560e01c8063028414f21461005c57806327d3553f146100785780634622ab03146100a9578063493ec707146100d957806368744046146100f5575b600080fd5b610076600480360381019061007191906106c0565b610126565b005b610092600480360381019061008d91906107a9565b610182565b6040516100a0929190610871565b60405180910390f35b6100c360048036038101906100be91906108a8565b6102c3565b6040516100d091906108d5565b60405180910390f35b6100f360048036038101906100ee91906106c0565b610363565b005b61010f600480360381019061010a91906108a8565b6103fc565b60405161011d929190610871565b60405180910390f35b6040518060400160405280838152602001828152506001600085815260200190815260200160002060008201518160000190816101639190610b03565b5060208201518160010190816101799190610b03565b50905050505050565b6002602052816000526040600020602052806000526040600020600091509150508060000180546101b290610926565b80601f01602080910402602001604051908101604052809291908181526020018280546101de90610926565b801561022b5780601f106102005761010080835404028352916020019161022b565b820191906000526020600020905b81548152906001019060200180831161020e57829003601f168201915b50505050509080600101805461024090610926565b80601f016020809104026020016040519081016040528092919081815260200182805461026c90610926565b80156102b95780601f1061028e576101008083540402835291602001916102b9565b820191906000526020600020905b81548152906001019060200180831161029c57829003601f168201915b5050505050905082565b600060205280600052604060002060009150905080546102e290610926565b80601f016020809104026020016040519081016040528092919081815260200182805461030e90610926565b801561035b5780601f106103305761010080835404028352916020019161035b565b820191906000526020600020905b81548152906001019060200180831161033e57829003601f168201915b505050505081565b604051806040016040528083815260200182815250600260003373ffffffffffffffffffffffffffffffffffffffff1673ffffffffffffffffffffffffffffffffffffffff168152602001908152602001600020600085815260200190815260200160002060008201518160000190816103dd9190610b03565b5060208201518160010190816103f39190610b03565b50905050505050565b600160205280600052604060002060009150905080600001805461041f90610926565b80601f016020809104026020016040519081016040528092919081815260200182805461044b90610926565b80156104985780601f1061046d57610100808354040283529160200191610498565b820191906000526020600020905b81548152906001019060200180831161047b57829003601f168201915b5050505050908060010180546104ad90610926565b80601f01602080910402602001604051908101604052809291908181526020018280546104d990610926565b80156105265780601f106104fb57610100808354040283529160200191610526565b820191906000526020600020905b81548152906001019060200180831161050957829003601f168201915b5050505050905082565b6000604051905090565b600080fd5b600080fd5b6000819050919050565b61055781610544565b811461056257600080fd5b50565b6000813590506105748161054e565b92915050565b600080fd5b600080fd5b6000601f19601f8301169050919050565b7f4e487b7100000000000000000000000000000000000000000000000000000000600052604160045260246000fd5b6105cd82610584565b810181811067ffffffffffffffff821117156105ec576105eb610595565b5b80604052505050565b60006105ff610530565b905061060b82826105c4565b919050565b600067ffffffffffffffff82111561062b5761062a610595565b5b61063482610584565b9050602081019050919050565b82818337600083830152505050565b600061066361065e84610610565b6105f5565b90508281526020810184848401111561067f5761067e61057f565b5b61068a848285610641565b509392505050565b600082601f8301126106a7576106a661057a565b5b81356106b7848260208601610650565b91505092915050565b6000806000606084860312156106d9576106d861053a565b5b60006106e786828701610565565b935050602084013567ffffffffffffffff8111156107085761070761053f565b5b61071486828701610692565b925050604084013567ffffffffffffffff8111156107355761073461053f565b5b61074186828701610692565b9150509250925092565b600073ffffffffffffffffffffffffffffffffffffffff82169050919050565b60006107768261074b565b9050919050565b6107868161076b565b811461079157600080fd5b50565b6000813590506107a38161077d565b92915050565b600080604083850312156107c0576107bf61053a565b5b60006107ce85828601610794565b92505060206107df85828601610565565b9150509250929050565b600081519050919050565b600082825260208201905092915050565b60005b83811015610823578082015181840152602081019050610808565b83811115610832576000848401525b50505050565b6000610843826107e9565b61084d81856107f4565b935061085d818560208601610805565b61086681610584565b840191505092915050565b6000604082019050818103600083015261088b8185610838565b9050818103602083015261089f8184610838565b90509392505050565b6000602082840312156108be576108bd61053a565b5b60006108cc84828501610565565b91505092915050565b600060208201905081810360008301526108ef8184610838565b905092915050565b7f4e487b7100000000000000000000000000000000000000000000000000000000600052602260045260246000fd5b6000600282049050600182168061093e57607f821691505b602082108103610951576109506108f7565b5b50919050565b60008190508160005260206000209050919050565b60006020601f8301049050919050565b600082821b905092915050565b6000600883026109b97fffffffffffffffffffffffffffffffffffffffffffffffffffffffffffffffff8261097c565b6109c3868361097c565b95508019841693508086168417925050509392505050565b6000819050919050565b6000610a006109fb6109f684610544565b6109db565b610544565b9050919050565b6000819050919050565b610a1a836109e5565b610a2e610a2682610a07565b848454610989565b825550505050565b600090565b610a43610a36565b610a4e818484610a11565b505050565b5b81811015610a7257610a67600082610a3b565b600181019050610a54565b5050565b601f821115610ab757610a8881610957565b610a918461096c565b81016020851015610aa0578190505b610ab4610aac8561096c565b830182610a53565b50505b505050565b600082821c905092915050565b6000610ada60001984600802610abc565b1980831691505092915050565b6000610af38383610ac9565b9150826002028217905092915050565b610b0c826107e9565b67ffffffffffffffff811115610b2557610b24610595565b5b610b2f8254610926565b610b3a828285610a76565b600060209050601f831160018114610b6d5760008415610b5b578287015190505b610b658582610ae7565b865550610bcd565b601f198416610b7b86610957565b60005b82811015610ba357848901518255600182019150602085019450602081019050610b7e565b86831015610bc05784890151610bbc601f891682610ac9565b8355505b6001600288020188555050505b50505050505056fea264697066735822122097d9c26354d0ab6d4e853c74fcae8862396f5a86a392c45ef77dcc182466698964736f6c634300080f0033",
  "immutableReferences": {},
  "source": "pragma solidity ^0.8.0;\n\ncontract Contract2{\n\t\tmapping(uint => string) public names;\n\t\tmapping(uint => Book) public books;\n\t    mapping(address => mapping(uint => Book)) public myBooks;\n\n\t\tstruct Book {\n\t\t\t\tstring title;\n\t\t\t\tstring author;\n\t\t}\n\n\t\tconstructor() public {\n\t\t\t\tnames[1] =\"Adam\";\n\t\t}\n\n\t\tfunction addBook(\n\t\t\t\tuint _id, \n\t\t\t\tstring memory _title, \n\t\t\t\tstring memory _author\n\t\t) public{\n\t\t\t\tbooks[_id] = Book(_title, _author);\n\t\t}\n\n\t\tfunction addMyBook(\n\t\t\t\tuint _id, \n\t\t\t\tstring memory _title, \n\t\t\t\tstring memory _author\n\t\t) public{\n\t\t\t\tmyBooks[msg.sender][_id] = Book(_title, _author);\n\t\t}\n\n}\n\n\n",
  "sourcePath": "/home/artem/truffleProjects/proj2/contracts/Contract2.sol",
  "compiler": {
    "name": "solc",
    "version": "0.8.15+commit.e14f2714.Emscripten.clang"
  },
  "schemaVersion": "3.4.7",
  "updatedAt": "2022-08-02T06:34:20.822Z",
  "networkType": "ethereum",
  "devdoc": {
    "kind": "dev",
    "methods": {},
    "version": 1
  },
  "userdoc": {
    "kind": "user",
    "methods": {},
    "version": 1
  }
}