{
  "contractName": "Dice",
  "abi": [
    {
      "inputs": [],
      "stateMutability": "nonpayable",
      "type": "constructor"
    },
    {
      "anonymous": false,
      "inputs": [
        {
          "indexed": true,
          "internalType": "address",
          "name": "owner",
          "type": "address"
        },
        {
          "indexed": true,
          "internalType": "address",
          "name": "spender",
          "type": "address"
        },
        {
          "indexed": false,
          "internalType": "uint256",
          "name": "value",
          "type": "uint256"
        }
      ],
      "name": "Approval",
      "type": "event"
    },
    {
      "anonymous": false,
      "inputs": [
        {
          "indexed": true,
          "internalType": "address",
          "name": "previousOwner",
          "type": "address"
        },
        {
          "indexed": true,
          "internalType": "address",
          "name": "newOwner",
          "type": "address"
        }
      ],
      "name": "OwnershipTransferred",
      "type": "event"
    },
    {
      "anonymous": false,
      "inputs": [
        {
          "indexed": true,
          "internalType": "address",
          "name": "from",
          "type": "address"
        },
        {
          "indexed": true,
          "internalType": "address",
          "name": "to",
          "type": "address"
        },
        {
          "indexed": false,
          "internalType": "uint256",
          "name": "value",
          "type": "uint256"
        }
      ],
      "name": "Transfer",
      "type": "event"
    },
    {
      "anonymous": false,
      "inputs": [
        {
          "indexed": false,
          "internalType": "address",
          "name": "player",
          "type": "address"
        },
        {
          "indexed": false,
          "internalType": "uint256",
          "name": "number",
          "type": "uint256"
        },
        {
          "indexed": false,
          "internalType": "enum Dice.direction",
          "name": "_direction",
          "type": "uint8"
        },
        {
          "indexed": false,
          "internalType": "uint256",
          "name": "value",
          "type": "uint256"
        }
      ],
      "name": "playLog",
      "type": "event"
    },
    {
      "inputs": [
        {
          "internalType": "address",
          "name": "owner",
          "type": "address"
        },
        {
          "internalType": "address",
          "name": "spender",
          "type": "address"
        }
      ],
      "name": "allowance",
      "outputs": [
        {
          "internalType": "uint256",
          "name": "",
          "type": "uint256"
        }
      ],
      "stateMutability": "view",
      "type": "function"
    },
    {
      "inputs": [
        {
          "internalType": "address",
          "name": "spender",
          "type": "address"
        },
        {
          "internalType": "uint256",
          "name": "amount",
          "type": "uint256"
        }
      ],
      "name": "approve",
      "outputs": [
        {
          "internalType": "bool",
          "name": "",
          "type": "bool"
        }
      ],
      "stateMutability": "nonpayable",
      "type": "function"
    },
    {
      "inputs": [
        {
          "internalType": "address",
          "name": "account",
          "type": "address"
        }
      ],
      "name": "balanceOf",
      "outputs": [
        {
          "internalType": "uint256",
          "name": "",
          "type": "uint256"
        }
      ],
      "stateMutability": "view",
      "type": "function"
    },
    {
      "inputs": [
        {
          "internalType": "uint256",
          "name": "amount",
          "type": "uint256"
        }
      ],
      "name": "burn",
      "outputs": [],
      "stateMutability": "nonpayable",
      "type": "function"
    },
    {
      "inputs": [
        {
          "internalType": "address",
          "name": "account",
          "type": "address"
        },
        {
          "internalType": "uint256",
          "name": "amount",
          "type": "uint256"
        }
      ],
      "name": "burnFrom",
      "outputs": [],
      "stateMutability": "nonpayable",
      "type": "function"
    },
    {
      "inputs": [],
      "name": "contractOwner",
      "outputs": [
        {
          "internalType": "address payable",
          "name": "",
          "type": "address"
        }
      ],
      "stateMutability": "view",
      "type": "function"
    },
    {
      "inputs": [],
      "name": "cryptoSalt",
      "outputs": [
        {
          "internalType": "uint256",
          "name": "",
          "type": "uint256"
        }
      ],
      "stateMutability": "view",
      "type": "function"
    },
    {
      "inputs": [],
      "name": "decimals",
      "outputs": [
        {
          "internalType": "uint8",
          "name": "",
          "type": "uint8"
        }
      ],
      "stateMutability": "view",
      "type": "function"
    },
    {
      "inputs": [
        {
          "internalType": "address",
          "name": "spender",
          "type": "address"
        },
        {
          "internalType": "uint256",
          "name": "subtractedValue",
          "type": "uint256"
        }
      ],
      "name": "decreaseAllowance",
      "outputs": [
        {
          "internalType": "bool",
          "name": "",
          "type": "bool"
        }
      ],
      "stateMutability": "nonpayable",
      "type": "function"
    },
    {
      "inputs": [
        {
          "internalType": "address",
          "name": "spender",
          "type": "address"
        },
        {
          "internalType": "uint256",
          "name": "addedValue",
          "type": "uint256"
        }
      ],
      "name": "increaseAllowance",
      "outputs": [
        {
          "internalType": "bool",
          "name": "",
          "type": "bool"
        }
      ],
      "stateMutability": "nonpayable",
      "type": "function"
    },
    {
      "inputs": [
        {
          "internalType": "address",
          "name": "to",
          "type": "address"
        },
        {
          "internalType": "uint256",
          "name": "amount",
          "type": "uint256"
        }
      ],
      "name": "mint",
      "outputs": [],
      "stateMutability": "nonpayable",
      "type": "function"
    },
    {
      "inputs": [],
      "name": "name",
      "outputs": [
        {
          "internalType": "string",
          "name": "",
          "type": "string"
        }
      ],
      "stateMutability": "view",
      "type": "function"
    },
    {
      "inputs": [],
      "name": "owner",
      "outputs": [
        {
          "internalType": "address",
          "name": "",
          "type": "address"
        }
      ],
      "stateMutability": "view",
      "type": "function"
    },
    {
      "inputs": [
        {
          "internalType": "address",
          "name": "",
          "type": "address"
        }
      ],
      "name": "players",
      "outputs": [
        {
          "internalType": "address payable",
          "name": "playerAddress",
          "type": "address"
        }
      ],
      "stateMutability": "view",
      "type": "function"
    },
    {
      "inputs": [],
      "name": "renounceOwnership",
      "outputs": [],
      "stateMutability": "nonpayable",
      "type": "function"
    },
    {
      "inputs": [],
      "name": "symbol",
      "outputs": [
        {
          "internalType": "string",
          "name": "",
          "type": "string"
        }
      ],
      "stateMutability": "view",
      "type": "function"
    },
    {
      "inputs": [],
      "name": "totalSupply",
      "outputs": [
        {
          "internalType": "uint256",
          "name": "",
          "type": "uint256"
        }
      ],
      "stateMutability": "view",
      "type": "function"
    },
    {
      "inputs": [
        {
          "internalType": "address",
          "name": "to",
          "type": "address"
        },
        {
          "internalType": "uint256",
          "name": "amount",
          "type": "uint256"
        }
      ],
      "name": "transfer",
      "outputs": [
        {
          "internalType": "bool",
          "name": "",
          "type": "bool"
        }
      ],
      "stateMutability": "nonpayable",
      "type": "function"
    },
    {
      "inputs": [
        {
          "internalType": "address",
          "name": "from",
          "type": "address"
        },
        {
          "internalType": "address",
          "name": "to",
          "type": "address"
        },
        {
          "internalType": "uint256",
          "name": "amount",
          "type": "uint256"
        }
      ],
      "name": "transferFrom",
      "outputs": [
        {
          "internalType": "bool",
          "name": "",
          "type": "bool"
        }
      ],
      "stateMutability": "nonpayable",
      "type": "function"
    },
    {
      "inputs": [
        {
          "internalType": "address",
          "name": "newOwner",
          "type": "address"
        }
      ],
      "name": "transferOwnership",
      "outputs": [],
      "stateMutability": "nonpayable",
      "type": "function"
    },
    {
      "inputs": [
        {
          "internalType": "uint256",
          "name": "_salt",
          "type": "uint256"
        }
      ],
      "name": "setSalt",
      "outputs": [
        {
          "internalType": "enum Dice.result",
          "name": "",
          "type": "uint8"
        }
      ],
      "stateMutability": "nonpayable",
      "type": "function"
    },
    {
      "inputs": [],
      "name": "getRandomNumber",
      "outputs": [
        {
          "internalType": "uint256",
          "name": "",
          "type": "uint256"
        }
      ],
      "stateMutability": "view",
      "type": "function"
    },
    {
      "inputs": [],
      "name": "initialisation",
      "outputs": [],
      "stateMutability": "nonpayable",
      "type": "function"
    },
    {
      "inputs": [],
      "name": "getPlayerInfo",
      "outputs": [
        {
          "internalType": "address",
          "name": "",
          "type": "address"
        },
        {
          "internalType": "uint8",
          "name": "",
          "type": "uint8"
        },
        {
          "internalType": "enum Dice.direction",
          "name": "",
          "type": "uint8"
        },
        {
          "internalType": "enum Dice.result",
          "name": "",
          "type": "uint8"
        }
      ],
      "stateMutability": "view",
      "type": "function"
    },
    {
      "inputs": [
        {
          "internalType": "enum Dice.direction",
          "name": "_direction",
          "type": "uint8"
        }
      ],
      "name": "playDice",
      "outputs": [],
      "stateMutability": "payable",
      "type": "function"
    }
  ],
  "bytecode": "0x60806040523480156200001157600080fd5b506040518060400160405280600881526020017f44496365436f696e0000000000000000000000000000000000000000000000008152506040518060400160405280600381526020017f444345000000000000000000000000000000000000000000000000000000000081525081600390816200008f919062000627565b508060049081620000a1919062000627565b505050620000c4620000b86200015460201b60201c565b6200015c60201b60201c565b6200010433620000d96200022260201b60201c565b600a620000e791906200089e565b633b9aca00620000f89190620008ef565b6200022b60201b60201c565b33600660006101000a81548173ffffffffffffffffffffffffffffffffffffffff021916908373ffffffffffffffffffffffffffffffffffffffff16021790555061aaaa60078190555062000a5e565b600033905090565b6000600560009054906101000a900473ffffffffffffffffffffffffffffffffffffffff16905081600560006101000a81548173ffffffffffffffffffffffffffffffffffffffff021916908373ffffffffffffffffffffffffffffffffffffffff1602179055508173ffffffffffffffffffffffffffffffffffffffff168173ffffffffffffffffffffffffffffffffffffffff167f8be0079c531659141344cd1fd0a4f28419497f9722a3daafe3b4186f6b6457e060405160405180910390a35050565b60006012905090565b600073ffffffffffffffffffffffffffffffffffffffff168273ffffffffffffffffffffffffffffffffffffffff16036200029d576040517f08c379a00000000000000000000000000000000000000000000000000000000081526004016200029490620009b1565b60405180910390fd5b620002b160008383620003a360201b60201c565b8060026000828254620002c59190620009d3565b92505081905550806000808473ffffffffffffffffffffffffffffffffffffffff1673ffffffffffffffffffffffffffffffffffffffff16815260200190815260200160002060008282546200031c9190620009d3565b925050819055508173ffffffffffffffffffffffffffffffffffffffff16600073ffffffffffffffffffffffffffffffffffffffff167fddf252ad1be2c89b69c2b068fc378daa952ba7f163c4a11628f55a4df523b3ef8360405162000383919062000a41565b60405180910390a36200039f60008383620003a860201b60201c565b5050565b505050565b505050565b600081519050919050565b7f4e487b7100000000000000000000000000000000000000000000000000000000600052604160045260246000fd5b7f4e487b7100000000000000000000000000000000000000000000000000000000600052602260045260246000fd5b600060028204905060018216806200042f57607f821691505b602082108103620004455762000444620003e7565b5b50919050565b60008190508160005260206000209050919050565b60006020601f8301049050919050565b600082821b905092915050565b600060088302620004af7fffffffffffffffffffffffffffffffffffffffffffffffffffffffffffffffff8262000470565b620004bb868362000470565b95508019841693508086168417925050509392505050565b6000819050919050565b6000819050919050565b60006200050862000502620004fc84620004d3565b620004dd565b620004d3565b9050919050565b6000819050919050565b6200052483620004e7565b6200053c62000533826200050f565b8484546200047d565b825550505050565b600090565b6200055362000544565b6200056081848462000519565b505050565b5b8181101562000588576200057c60008262000549565b60018101905062000566565b5050565b601f821115620005d757620005a1816200044b565b620005ac8462000460565b81016020851015620005bc578190505b620005d4620005cb8562000460565b83018262000565565b50505b505050565b600082821c905092915050565b6000620005fc60001984600802620005dc565b1980831691505092915050565b6000620006178383620005e9565b9150826002028217905092915050565b6200063282620003ad565b67ffffffffffffffff8111156200064e576200064d620003b8565b5b6200065a825462000416565b620006678282856200058c565b600060209050601f8311600181146200069f57600084156200068a578287015190505b62000696858262000609565b86555062000706565b601f198416620006af866200044b565b60005b82811015620006d957848901518255600182019150602085019450602081019050620006b2565b86831015620006f95784890151620006f5601f891682620005e9565b8355505b6001600288020188555050505b505050505050565b7f4e487b7100000000000000000000000000000000000000000000000000000000600052601160045260246000fd5b60008160011c9050919050565b6000808291508390505b60018511156200079c578086048111156200077457620007736200070e565b5b6001851615620007845780820291505b808102905062000794856200073d565b945062000754565b94509492505050565b600082620007b757600190506200088a565b81620007c757600090506200088a565b8160018114620007e05760028114620007eb5762000821565b60019150506200088a565b60ff8411156200080057620007ff6200070e565b5b8360020a9150848211156200081a57620008196200070e565b5b506200088a565b5060208310610133831016604e8410600b84101617156200085b5782820a9050838111156200085557620008546200070e565b5b6200088a565b6200086a84848460016200074a565b925090508184048111156200088457620008836200070e565b5b81810290505b9392505050565b600060ff82169050919050565b6000620008ab82620004d3565b9150620008b88362000891565b9250620008e77fffffffffffffffffffffffffffffffffffffffffffffffffffffffffffffffff8484620007a5565b905092915050565b6000620008fc82620004d3565b91506200090983620004d3565b9250817fffffffffffffffffffffffffffffffffffffffffffffffffffffffffffffffff04831182151516156200094557620009446200070e565b5b828202905092915050565b600082825260208201905092915050565b7f45524332303a206d696e7420746f20746865207a65726f206164647265737300600082015250565b600062000999601f8362000950565b9150620009a68262000961565b602082019050919050565b60006020820190508181036000830152620009cc816200098a565b9050919050565b6000620009e082620004d3565b9150620009ed83620004d3565b9250827fffffffffffffffffffffffffffffffffffffffffffffffffffffffffffffffff0382111562000a255762000a246200070e565b5b828201905092915050565b62000a3b81620004d3565b82525050565b600060208201905062000a58600083018462000a30565b92915050565b612fb78062000a6e6000396000f3fe6080604052600436106101665760003560e01c8063715018a6116100d1578063a9059cbb1161008a578063dbdff2c111610064578063dbdff2c114610536578063dd62ed3e14610561578063e2eb41ff1461059e578063f2fde38b146105db57610166565b8063a9059cbb146104a0578063ce606ee0146104dd578063d1df81df1461050857610166565b8063715018a6146103b157806379cc6790146103c85780638da5cb5b146103f157806395d89b411461041c578063a457c2d714610447578063a6317b6f1461048457610166565b806340c10f191161012357806340c10f19146102a357806342966c68146102cc57806359483e1a146102f5578063596dbaa5146103205780635e0cc9c61461033757806370a082311461037457610166565b806306fdde031461016b578063095ea7b31461019657806318160ddd146101d357806323b872dd146101fe578063313ce5671461023b5780633950935114610266575b600080fd5b34801561017757600080fd5b50610180610604565b60405161018d9190612135565b60405180910390f35b3480156101a257600080fd5b506101bd60048036038101906101b891906121f0565b610696565b6040516101ca919061224b565b60405180910390f35b3480156101df57600080fd5b506101e86106b9565b6040516101f59190612275565b60405180910390f35b34801561020a57600080fd5b5061022560048036038101906102209190612290565b6106c3565b604051610232919061224b565b60405180910390f35b34801561024757600080fd5b506102506106f2565b60405161025d91906122ff565b60405180910390f35b34801561027257600080fd5b5061028d600480360381019061028891906121f0565b6106fb565b60405161029a919061224b565b60405180910390f35b3480156102af57600080fd5b506102ca60048036038101906102c591906121f0565b610732565b005b3480156102d857600080fd5b506102f360048036038101906102ee919061231a565b610748565b005b34801561030157600080fd5b5061030a61075c565b6040516103179190612275565b60405180910390f35b34801561032c57600080fd5b50610335610762565b005b34801561034357600080fd5b5061035e6004803603810190610359919061231a565b6107e5565b60405161036b91906123be565b60405180910390f35b34801561038057600080fd5b5061039b600480360381019061039691906123d9565b6107f7565b6040516103a89190612275565b60405180910390f35b3480156103bd57600080fd5b506103c661083f565b005b3480156103d457600080fd5b506103ef60048036038101906103ea91906121f0565b610853565b005b3480156103fd57600080fd5b50610406610873565b6040516104139190612415565b60405180910390f35b34801561042857600080fd5b5061043161089d565b60405161043e9190612135565b60405180910390f35b34801561045357600080fd5b5061046e600480360381019061046991906121f0565b61092f565b60405161047b919061224b565b60405180910390f35b61049e60048036038101906104999190612455565b6109a6565b005b3480156104ac57600080fd5b506104c760048036038101906104c291906121f0565b6112af565b6040516104d4919061224b565b60405180910390f35b3480156104e957600080fd5b506104f26112d2565b6040516104ff91906124a3565b60405180910390f35b34801561051457600080fd5b5061051d6112f8565b60405161052d9493929190612506565b60405180910390f35b34801561054257600080fd5b5061054b6115be565b6040516105589190612275565b60405180910390f35b34801561056d57600080fd5b506105886004803603810190610583919061254b565b6115f5565b6040516105959190612275565b60405180910390f35b3480156105aa57600080fd5b506105c560048036038101906105c091906123d9565b61167c565b6040516105d291906124a3565b60405180910390f35b3480156105e757600080fd5b5061060260048036038101906105fd91906123d9565b6116ba565b005b606060038054610613906125ba565b80601f016020809104026020016040519081016040528092919081815260200182805461063f906125ba565b801561068c5780601f106106615761010080835404028352916020019161068c565b820191906000526020600020905b81548152906001019060200180831161066f57829003601f168201915b5050505050905090565b6000806106a161173d565b90506106ae818585611745565b600191505092915050565b6000600254905090565b6000806106ce61173d565b90506106db85828561190e565b6106e685858561199a565b60019150509392505050565b60006012905090565b60008061070661173d565b905061072781858561071885896115f5565b610722919061261a565b611745565b600191505092915050565b61073a611c19565b6107448282611c97565b5050565b61075961075361173d565b82611df6565b50565b60075481565b33600860003373ffffffffffffffffffffffffffffffffffffffff1673ffffffffffffffffffffffffffffffffffffffff16815260200190815260200160002060000160006101000a81548173ffffffffffffffffffffffffffffffffffffffff021916908373ffffffffffffffffffffffffffffffffffffffff160217905550565b60008160078190555060009050919050565b60008060008373ffffffffffffffffffffffffffffffffffffffff1673ffffffffffffffffffffffffffffffffffffffff168152602001908152602001600020549050919050565b610847611c19565b6108516000611fcc565b565b6108658261085f61173d565b8361190e565b61086f8282611df6565b5050565b6000600560009054906101000a900473ffffffffffffffffffffffffffffffffffffffff16905090565b6060600480546108ac906125ba565b80601f01602080910402602001604051908101604052809291908181526020018280546108d8906125ba565b80156109255780601f106108fa57610100808354040283529160200191610925565b820191906000526020600020905b81548152906001019060200180831161090857829003601f168201915b5050505050905090565b60008061093a61173d565b9050600061094882866115f5565b90508381101561098d576040517f08c379a0000000000000000000000000000000000000000000000000000000008152600401610984906126e2565b60405180910390fd5b61099a8286868403611745565b60019250505092915050565b600060028111156109ba576109b9612347565b5b8160028111156109cd576109cc612347565b5b14806109fd5750600160028111156109e8576109e7612347565b5b8160028111156109fb576109fa612347565b5b145b80610a2b5750600280811115610a1657610a15612347565b5b816002811115610a2957610a28612347565b5b145b610a6a576040517f08c379a0000000000000000000000000000000000000000000000000000000008152600401610a619061274e565b60405180910390fd5b60006065610a766115be565b610a80919061279d565b9050600860003373ffffffffffffffffffffffffffffffffffffffff1673ffffffffffffffffffffffffffffffffffffffff1681526020019081526020016000206001018190806001815401808255809150506001900390600052602060002090602091828204019190069091909190916101000a81548160ff021916908360ff160217905550600860003373ffffffffffffffffffffffffffffffffffffffff1673ffffffffffffffffffffffffffffffffffffffff1681526020019081526020016000206002018290806001815401808255809150506001900390600052602060002090602091828204019190069091909190916101000a81548160ff02191690836002811115610b9657610b95612347565b5b02179055507fe9292d8d1e39a1684e5c8f41f67409c6f88e062828e3cf5f732c3136b04b4e53600860003373ffffffffffffffffffffffffffffffffffffffff1673ffffffffffffffffffffffffffffffffffffffff16815260200190815260200160002060000160009054906101000a900473ffffffffffffffffffffffffffffffffffffffff16828434604051610c32949392919061285e565b60405180910390a160006002811115610c4e57610c4d612347565b5b826002811115610c6157610c60612347565b5b03610e5c5760328160ff161115610dc157600860003373ffffffffffffffffffffffffffffffffffffffff1673ffffffffffffffffffffffffffffffffffffffff16815260200190815260200160002060000160009054906101000a900473ffffffffffffffffffffffffffffffffffffffff1673ffffffffffffffffffffffffffffffffffffffff166108fc600234610cfb91906128a3565b9081150290604051600060405180830381858888f19350505050158015610d26573d6000803e3d6000fd5b50600860003373ffffffffffffffffffffffffffffffffffffffff1673ffffffffffffffffffffffffffffffffffffffff168152602001908152602001600020600301600290806001815401808255809150506001900390600052602060002090602091828204019190069091909190916101000a81548160ff02191690836003811115610db757610db6612347565b5b0217905550610e57565b600860003373ffffffffffffffffffffffffffffffffffffffff1673ffffffffffffffffffffffffffffffffffffffff168152602001908152602001600020600301600390806001815401808255809150506001900390600052602060002090602091828204019190069091909190916101000a81548160ff02191690836003811115610e5157610e50612347565b5b02179055505b6112ab565b60016002811115610e7057610e6f612347565b5b826002811115610e8357610e82612347565b5b0361107e5760318160ff161015610fe357600860003373ffffffffffffffffffffffffffffffffffffffff1673ffffffffffffffffffffffffffffffffffffffff16815260200190815260200160002060000160009054906101000a900473ffffffffffffffffffffffffffffffffffffffff1673ffffffffffffffffffffffffffffffffffffffff166108fc600234610f1d91906128a3565b9081150290604051600060405180830381858888f19350505050158015610f48573d6000803e3d6000fd5b50600860003373ffffffffffffffffffffffffffffffffffffffff1673ffffffffffffffffffffffffffffffffffffffff168152602001908152602001600020600301600290806001815401808255809150506001900390600052602060002090602091828204019190069091909190916101000a81548160ff02191690836003811115610fd957610fd8612347565b5b0217905550611079565b600860003373ffffffffffffffffffffffffffffffffffffffff1673ffffffffffffffffffffffffffffffffffffffff168152602001908152602001600020600301600390806001815401808255809150506001900390600052602060002090602091828204019190069091909190916101000a81548160ff0219169083600381111561107357611072612347565b5b02179055505b6112aa565b60028081111561109157611090612347565b5b8260028111156110a4576110a3612347565b5b036112a95760318160ff1614806110be575060328160ff16145b1561121257600860003373ffffffffffffffffffffffffffffffffffffffff1673ffffffffffffffffffffffffffffffffffffffff16815260200190815260200160002060000160009054906101000a900473ffffffffffffffffffffffffffffffffffffffff1673ffffffffffffffffffffffffffffffffffffffff166108fc600a3461114c91906128a3565b9081150290604051600060405180830381858888f19350505050158015611177573d6000803e3d6000fd5b50600860003373ffffffffffffffffffffffffffffffffffffffff1673ffffffffffffffffffffffffffffffffffffffff168152602001908152602001600020600301600290806001815401808255809150506001900390600052602060002090602091828204019190069091909190916101000a81548160ff0219169083600381111561120857611207612347565b5b02179055506112a8565b600860003373ffffffffffffffffffffffffffffffffffffffff1673ffffffffffffffffffffffffffffffffffffffff168152602001908152602001600020600301600390806001815401808255809150506001900390600052602060002090602091828204019190069091909190916101000a81548160ff021916908360038111156112a2576112a1612347565b5b02179055505b5b5b5b5050565b6000806112ba61173d565b90506112c781858561199a565b600191505092915050565b600660009054906101000a900473ffffffffffffffffffffffffffffffffffffffff1681565b600080600080600860003373ffffffffffffffffffffffffffffffffffffffff1673ffffffffffffffffffffffffffffffffffffffff16815260200190815260200160002060000160009054906101000a900473ffffffffffffffffffffffffffffffffffffffff16600860003373ffffffffffffffffffffffffffffffffffffffff1673ffffffffffffffffffffffffffffffffffffffff1681526020019081526020016000206001016001600860003373ffffffffffffffffffffffffffffffffffffffff1673ffffffffffffffffffffffffffffffffffffffff168152602001908152602001600020600101805490506113f591906128fd565b8154811061140657611405612931565b5b90600052602060002090602091828204019190069054906101000a900460ff16600860003373ffffffffffffffffffffffffffffffffffffffff1673ffffffffffffffffffffffffffffffffffffffff1681526020019081526020016000206002016001600860003373ffffffffffffffffffffffffffffffffffffffff1673ffffffffffffffffffffffffffffffffffffffff168152602001908152602001600020600201805490506114ba91906128fd565b815481106114cb576114ca612931565b5b90600052602060002090602091828204019190069054906101000a900460ff16600860003373ffffffffffffffffffffffffffffffffffffffff1673ffffffffffffffffffffffffffffffffffffffff1681526020019081526020016000206003016001600860003373ffffffffffffffffffffffffffffffffffffffff1673ffffffffffffffffffffffffffffffffffffffff1681526020019081526020016000206003018054905061157f91906128fd565b815481106115905761158f612931565b5b90600052602060002090602091828204019190069054906101000a900460ff16935093509350935090919293565b60006007544418426040516020016115d7929190612981565b6040516020818303038152906040528051906020012060001c905090565b6000600160008473ffffffffffffffffffffffffffffffffffffffff1673ffffffffffffffffffffffffffffffffffffffff16815260200190815260200160002060008373ffffffffffffffffffffffffffffffffffffffff1673ffffffffffffffffffffffffffffffffffffffff16815260200190815260200160002054905092915050565b60086020528060005260406000206000915090508060000160009054906101000a900473ffffffffffffffffffffffffffffffffffffffff16905081565b6116c2611c19565b600073ffffffffffffffffffffffffffffffffffffffff168173ffffffffffffffffffffffffffffffffffffffff1603611731576040517f08c379a000000000000000000000000000000000000000000000000000000000815260040161172890612a1f565b60405180910390fd5b61173a81611fcc565b50565b600033905090565b600073ffffffffffffffffffffffffffffffffffffffff168373ffffffffffffffffffffffffffffffffffffffff16036117b4576040517f08c379a00000000000000000000000000000000000000000000000000000000081526004016117ab90612ab1565b60405180910390fd5b600073ffffffffffffffffffffffffffffffffffffffff168273ffffffffffffffffffffffffffffffffffffffff1603611823576040517f08c379a000000000000000000000000000000000000000000000000000000000815260040161181a90612b43565b60405180910390fd5b80600160008573ffffffffffffffffffffffffffffffffffffffff1673ffffffffffffffffffffffffffffffffffffffff16815260200190815260200160002060008473ffffffffffffffffffffffffffffffffffffffff1673ffffffffffffffffffffffffffffffffffffffff168152602001908152602001600020819055508173ffffffffffffffffffffffffffffffffffffffff168373ffffffffffffffffffffffffffffffffffffffff167f8c5be1e5ebec7d5bd14f71427d1e84f3dd0314c0f7b2291e5b200ac8c7c3b925836040516119019190612275565b60405180910390a3505050565b600061191a84846115f5565b90507fffffffffffffffffffffffffffffffffffffffffffffffffffffffffffffffff81146119945781811015611986576040517f08c379a000000000000000000000000000000000000000000000000000000000815260040161197d90612baf565b60405180910390fd5b6119938484848403611745565b5b50505050565b600073ffffffffffffffffffffffffffffffffffffffff168373ffffffffffffffffffffffffffffffffffffffff1603611a09576040517f08c379a0000000000000000000000000000000000000000000000000000000008152600401611a0090612c41565b60405180910390fd5b600073ffffffffffffffffffffffffffffffffffffffff168273ffffffffffffffffffffffffffffffffffffffff1603611a78576040517f08c379a0000000000000000000000000000000000000000000000000000000008152600401611a6f90612cd3565b60405180910390fd5b611a83838383612092565b60008060008573ffffffffffffffffffffffffffffffffffffffff1673ffffffffffffffffffffffffffffffffffffffff16815260200190815260200160002054905081811015611b09576040517f08c379a0000000000000000000000000000000000000000000000000000000008152600401611b0090612d65565b60405180910390fd5b8181036000808673ffffffffffffffffffffffffffffffffffffffff1673ffffffffffffffffffffffffffffffffffffffff16815260200190815260200160002081905550816000808573ffffffffffffffffffffffffffffffffffffffff1673ffffffffffffffffffffffffffffffffffffffff1681526020019081526020016000206000828254611b9c919061261a565b925050819055508273ffffffffffffffffffffffffffffffffffffffff168473ffffffffffffffffffffffffffffffffffffffff167fddf252ad1be2c89b69c2b068fc378daa952ba7f163c4a11628f55a4df523b3ef84604051611c009190612275565b60405180910390a3611c13848484612097565b50505050565b611c2161173d565b73ffffffffffffffffffffffffffffffffffffffff16611c3f610873565b73ffffffffffffffffffffffffffffffffffffffff1614611c95576040517f08c379a0000000000000000000000000000000000000000000000000000000008152600401611c8c90612dd1565b60405180910390fd5b565b600073ffffffffffffffffffffffffffffffffffffffff168273ffffffffffffffffffffffffffffffffffffffff1603611d06576040517f08c379a0000000000000000000000000000000000000000000000000000000008152600401611cfd90612e3d565b60405180910390fd5b611d1260008383612092565b8060026000828254611d24919061261a565b92505081905550806000808473ffffffffffffffffffffffffffffffffffffffff1673ffffffffffffffffffffffffffffffffffffffff1681526020019081526020016000206000828254611d79919061261a565b925050819055508173ffffffffffffffffffffffffffffffffffffffff16600073ffffffffffffffffffffffffffffffffffffffff167fddf252ad1be2c89b69c2b068fc378daa952ba7f163c4a11628f55a4df523b3ef83604051611dde9190612275565b60405180910390a3611df260008383612097565b5050565b600073ffffffffffffffffffffffffffffffffffffffff168273ffffffffffffffffffffffffffffffffffffffff1603611e65576040517f08c379a0000000000000000000000000000000000000000000000000000000008152600401611e5c90612ecf565b60405180910390fd5b611e7182600083612092565b60008060008473ffffffffffffffffffffffffffffffffffffffff1673ffffffffffffffffffffffffffffffffffffffff16815260200190815260200160002054905081811015611ef7576040517f08c379a0000000000000000000000000000000000000000000000000000000008152600401611eee90612f61565b60405180910390fd5b8181036000808573ffffffffffffffffffffffffffffffffffffffff1673ffffffffffffffffffffffffffffffffffffffff168152602001908152602001600020819055508160026000828254611f4e91906128fd565b92505081905550600073ffffffffffffffffffffffffffffffffffffffff168373ffffffffffffffffffffffffffffffffffffffff167fddf252ad1be2c89b69c2b068fc378daa952ba7f163c4a11628f55a4df523b3ef84604051611fb39190612275565b60405180910390a3611fc783600084612097565b505050565b6000600560009054906101000a900473ffffffffffffffffffffffffffffffffffffffff16905081600560006101000a81548173ffffffffffffffffffffffffffffffffffffffff021916908373ffffffffffffffffffffffffffffffffffffffff1602179055508173ffffffffffffffffffffffffffffffffffffffff168173ffffffffffffffffffffffffffffffffffffffff167f8be0079c531659141344cd1fd0a4f28419497f9722a3daafe3b4186f6b6457e060405160405180910390a35050565b505050565b505050565b600081519050919050565b600082825260208201905092915050565b60005b838110156120d65780820151818401526020810190506120bb565b838111156120e5576000848401525b50505050565b6000601f19601f8301169050919050565b60006121078261209c565b61211181856120a7565b93506121218185602086016120b8565b61212a816120eb565b840191505092915050565b6000602082019050818103600083015261214f81846120fc565b905092915050565b600080fd5b600073ffffffffffffffffffffffffffffffffffffffff82169050919050565b60006121878261215c565b9050919050565b6121978161217c565b81146121a257600080fd5b50565b6000813590506121b48161218e565b92915050565b6000819050919050565b6121cd816121ba565b81146121d857600080fd5b50565b6000813590506121ea816121c4565b92915050565b6000806040838503121561220757612206612157565b5b6000612215858286016121a5565b9250506020612226858286016121db565b9150509250929050565b60008115159050919050565b61224581612230565b82525050565b6000602082019050612260600083018461223c565b92915050565b61226f816121ba565b82525050565b600060208201905061228a6000830184612266565b92915050565b6000806000606084860312156122a9576122a8612157565b5b60006122b7868287016121a5565b93505060206122c8868287016121a5565b92505060406122d9868287016121db565b9150509250925092565b600060ff82169050919050565b6122f9816122e3565b82525050565b600060208201905061231460008301846122f0565b92915050565b6000602082840312156123305761232f612157565b5b600061233e848285016121db565b91505092915050565b7f4e487b7100000000000000000000000000000000000000000000000000000000600052602160045260246000fd5b6004811061238757612386612347565b5b50565b600081905061239882612376565b919050565b60006123a88261238a565b9050919050565b6123b88161239d565b82525050565b60006020820190506123d360008301846123af565b92915050565b6000602082840312156123ef576123ee612157565b5b60006123fd848285016121a5565b91505092915050565b61240f8161217c565b82525050565b600060208201905061242a6000830184612406565b92915050565b6003811061243d57600080fd5b50565b60008135905061244f81612430565b92915050565b60006020828403121561246b5761246a612157565b5b600061247984828501612440565b91505092915050565b600061248d8261215c565b9050919050565b61249d81612482565b82525050565b60006020820190506124b86000830184612494565b92915050565b600381106124cf576124ce612347565b5b50565b60008190506124e0826124be565b919050565b60006124f0826124d2565b9050919050565b612500816124e5565b82525050565b600060808201905061251b6000830187612406565b61252860208301866122f0565b61253560408301856124f7565b61254260608301846123af565b95945050505050565b6000806040838503121561256257612561612157565b5b6000612570858286016121a5565b9250506020612581858286016121a5565b9150509250929050565b7f4e487b7100000000000000000000000000000000000000000000000000000000600052602260045260246000fd5b600060028204905060018216806125d257607f821691505b6020821081036125e5576125e461258b565b5b50919050565b7f4e487b7100000000000000000000000000000000000000000000000000000000600052601160045260246000fd5b6000612625826121ba565b9150612630836121ba565b9250827fffffffffffffffffffffffffffffffffffffffffffffffffffffffffffffffff03821115612665576126646125eb565b5b828201905092915050565b7f45524332303a2064656372656173656420616c6c6f77616e63652062656c6f7760008201527f207a65726f000000000000000000000000000000000000000000000000000000602082015250565b60006126cc6025836120a7565b91506126d782612670565b604082019050919050565b600060208201905081810360008301526126fb816126bf565b9050919050565b7f57726f6e672076616c7565000000000000000000000000000000000000000000600082015250565b6000612738600b836120a7565b915061274382612702565b602082019050919050565b600060208201905081810360008301526127678161272b565b9050919050565b7f4e487b7100000000000000000000000000000000000000000000000000000000600052601260045260246000fd5b60006127a8826121ba565b91506127b3836121ba565b9250826127c3576127c261276e565b5b828206905092915050565b6000819050919050565b60006127f36127ee6127e98461215c565b6127ce565b61215c565b9050919050565b6000612805826127d8565b9050919050565b6000612817826127fa565b9050919050565b6128278161280c565b82525050565b600061284861284361283e846122e3565b6127ce565b6121ba565b9050919050565b6128588161282d565b82525050565b6000608082019050612873600083018761281e565b612880602083018661284f565b61288d60408301856124f7565b61289a6060830184612266565b95945050505050565b60006128ae826121ba565b91506128b9836121ba565b9250817fffffffffffffffffffffffffffffffffffffffffffffffffffffffffffffffff04831182151516156128f2576128f16125eb565b5b828202905092915050565b6000612908826121ba565b9150612913836121ba565b925082821015612926576129256125eb565b5b828203905092915050565b7f4e487b7100000000000000000000000000000000000000000000000000000000600052603260045260246000fd5b6000819050919050565b61297b612976826121ba565b612960565b82525050565b600061298d828561296a565b60208201915061299d828461296a565b6020820191508190509392505050565b7f4f776e61626c653a206e6577206f776e657220697320746865207a65726f206160008201527f6464726573730000000000000000000000000000000000000000000000000000602082015250565b6000612a096026836120a7565b9150612a14826129ad565b604082019050919050565b60006020820190508181036000830152612a38816129fc565b9050919050565b7f45524332303a20617070726f76652066726f6d20746865207a65726f2061646460008201527f7265737300000000000000000000000000000000000000000000000000000000602082015250565b6000612a9b6024836120a7565b9150612aa682612a3f565b604082019050919050565b60006020820190508181036000830152612aca81612a8e565b9050919050565b7f45524332303a20617070726f766520746f20746865207a65726f20616464726560008201527f7373000000000000000000000000000000000000000000000000000000000000602082015250565b6000612b2d6022836120a7565b9150612b3882612ad1565b604082019050919050565b60006020820190508181036000830152612b5c81612b20565b9050919050565b7f45524332303a20696e73756666696369656e7420616c6c6f77616e6365000000600082015250565b6000612b99601d836120a7565b9150612ba482612b63565b602082019050919050565b60006020820190508181036000830152612bc881612b8c565b9050919050565b7f45524332303a207472616e736665722066726f6d20746865207a65726f20616460008201527f6472657373000000000000000000000000000000000000000000000000000000602082015250565b6000612c2b6025836120a7565b9150612c3682612bcf565b604082019050919050565b60006020820190508181036000830152612c5a81612c1e565b9050919050565b7f45524332303a207472616e7366657220746f20746865207a65726f206164647260008201527f6573730000000000000000000000000000000000000000000000000000000000602082015250565b6000612cbd6023836120a7565b9150612cc882612c61565b604082019050919050565b60006020820190508181036000830152612cec81612cb0565b9050919050565b7f45524332303a207472616e7366657220616d6f756e742065786365656473206260008201527f616c616e63650000000000000000000000000000000000000000000000000000602082015250565b6000612d4f6026836120a7565b9150612d5a82612cf3565b604082019050919050565b60006020820190508181036000830152612d7e81612d42565b9050919050565b7f4f776e61626c653a2063616c6c6572206973206e6f7420746865206f776e6572600082015250565b6000612dbb6020836120a7565b9150612dc682612d85565b602082019050919050565b60006020820190508181036000830152612dea81612dae565b9050919050565b7f45524332303a206d696e7420746f20746865207a65726f206164647265737300600082015250565b6000612e27601f836120a7565b9150612e3282612df1565b602082019050919050565b60006020820190508181036000830152612e5681612e1a565b9050919050565b7f45524332303a206275726e2066726f6d20746865207a65726f2061646472657360008201527f7300000000000000000000000000000000000000000000000000000000000000602082015250565b6000612eb96021836120a7565b9150612ec482612e5d565b604082019050919050565b60006020820190508181036000830152612ee881612eac565b9050919050565b7f45524332303a206275726e20616d6f756e7420657863656564732062616c616e60008201527f6365000000000000000000000000000000000000000000000000000000000000602082015250565b6000612f4b6022836120a7565b9150612f5682612eef565b604082019050919050565b60006020820190508181036000830152612f7a81612f3e565b905091905056fea264697066735822122001acf1b5910aabb25c4a77865003b97b1c47727cf577186d0be4512c8095c28c64736f6c634300080f0033",
  "immutableReferences": {},
  "source": "// SPDX-License-Identifier: MIT\npragma solidity ^0.8.4;\n\nimport \"./DiceToken.sol\";\n\ncontract Dice is DiceCoin{\n    address payable public contractOwner;\n    uint public cryptoSalt; \n    enum result {\n        OK, \n        ERROR, \n        WIN, \n        LOSE\n    }\n    enum direction {\n        UP, \n        DOWN, \n        ZERO}\n    struct Player{\n        address payable playerAddress;\n        uint8[] rolls;\n        direction[] directions;\n        result[] results;\n    }\n\n    mapping (address => Player) public players;\n    \n    constructor(){\n        contractOwner = payable(msg.sender);\n        cryptoSalt = 0xAAAA; // Default salt\n    }\n\n    event playLog(address player, \n                  uint number, \n                  direction _direction, \n                  uint value\n                 );\n    //Everyone can change salt value\n    function setSalt(uint _salt) public returns (result){\n        cryptoSalt = _salt;\n        return result.OK;\n    }\n    //Generate random number\n    function getRandomNumber() view public returns (uint) {\n        return uint(keccak256(abi.encodePacked((block.difficulty ^ cryptoSalt), block.timestamp)));\n    }\n\n    function initialisation() public {\n        players[msg.sender].playerAddress = payable(msg.sender);\n    }\n\n    function getPlayerInfo() public view returns (address, uint8, direction, result){\n        return (players[msg.sender].playerAddress, \n                players[msg.sender].rolls[players[msg.sender].rolls.length - 1],\n                players[msg.sender].directions[players[msg.sender].directions.length - 1],\n                players[msg.sender].results[players[msg.sender].results.length - 1]) ;\n    }\n\n    function playDice(direction _direction) public payable {\n        require(_direction == direction.UP || \n                _direction == direction.DOWN || \n                _direction == direction.ZERO, 'Wrong value');\n\n        uint8 randomNumber = uint8(getRandomNumber() % 101);\n        players[msg.sender].rolls.push(randomNumber);\n        players[msg.sender].directions.push(_direction);\n\n         emit playLog(players[msg.sender].playerAddress, \n                      randomNumber, \n                      _direction, \n                      msg.value\n                     );\n\n        if(_direction == direction.UP){\n            if(randomNumber > 50){\n                players[msg.sender].playerAddress.transfer(msg.value * 2);\n                players[msg.sender].results.push(result.WIN);\n            }else{               \n                players[msg.sender].results.push(result.LOSE);\n            }\n        }else if(_direction == direction.DOWN){\n            if(randomNumber < 49){\n                players[msg.sender].playerAddress.transfer(msg.value * 2);\n                players[msg.sender].results.push(result.WIN);\n            }else{\n                players[msg.sender].results.push(result.LOSE);\n            }\n        }else if(_direction == direction.ZERO){\n            if(randomNumber == 49 || randomNumber == 50 ){\n                players[msg.sender].playerAddress.transfer(msg.value * 10);\n                players[msg.sender].results.push(result.WIN);\n            }else{\n                players[msg.sender].results.push(result.LOSE);\n            }\n        }\n    }\n}\n",
  "sourcePath": "/home/artem/truffleProjects/proj2/contracts/Dice.sol",
  "compiler": {
    "name": "solc",
    "version": "0.8.15+commit.e14f2714.Emscripten.clang"
  },
  "schemaVersion": "3.4.7",
  "updatedAt": "2022-07-22T04:42:58.634Z",
  "devdoc": {
    "kind": "dev",
    "methods": {
      "allowance(address,address)": {
        "details": "See {IERC20-allowance}."
      },
      "approve(address,uint256)": {
        "details": "See {IERC20-approve}. NOTE: If `amount` is the maximum `uint256`, the allowance is not updated on `transferFrom`. This is semantically equivalent to an infinite approval. Requirements: - `spender` cannot be the zero address."
      },
      "balanceOf(address)": {
        "details": "See {IERC20-balanceOf}."
      },
      "burn(uint256)": {
        "details": "Destroys `amount` tokens from the caller. See {ERC20-_burn}."
      },
      "burnFrom(address,uint256)": {
        "details": "Destroys `amount` tokens from `account`, deducting from the caller's allowance. See {ERC20-_burn} and {ERC20-allowance}. Requirements: - the caller must have allowance for ``accounts``'s tokens of at least `amount`."
      },
      "decimals()": {
        "details": "Returns the number of decimals used to get its user representation. For example, if `decimals` equals `2`, a balance of `505` tokens should be displayed to a user as `5.05` (`505 / 10 ** 2`). Tokens usually opt for a value of 18, imitating the relationship between Ether and Wei. This is the value {ERC20} uses, unless this function is overridden; NOTE: This information is only used for _display_ purposes: it in no way affects any of the arithmetic of the contract, including {IERC20-balanceOf} and {IERC20-transfer}."
      },
      "decreaseAllowance(address,uint256)": {
        "details": "Atomically decreases the allowance granted to `spender` by the caller. This is an alternative to {approve} that can be used as a mitigation for problems described in {IERC20-approve}. Emits an {Approval} event indicating the updated allowance. Requirements: - `spender` cannot be the zero address. - `spender` must have allowance for the caller of at least `subtractedValue`."
      },
      "increaseAllowance(address,uint256)": {
        "details": "Atomically increases the allowance granted to `spender` by the caller. This is an alternative to {approve} that can be used as a mitigation for problems described in {IERC20-approve}. Emits an {Approval} event indicating the updated allowance. Requirements: - `spender` cannot be the zero address."
      },
      "name()": {
        "details": "Returns the name of the token."
      },
      "owner()": {
        "details": "Returns the address of the current owner."
      },
      "renounceOwnership()": {
        "details": "Leaves the contract without owner. It will not be possible to call `onlyOwner` functions anymore. Can only be called by the current owner. NOTE: Renouncing ownership will leave the contract without an owner, thereby removing any functionality that is only available to the owner."
      },
      "symbol()": {
        "details": "Returns the symbol of the token, usually a shorter version of the name."
      },
      "totalSupply()": {
        "details": "See {IERC20-totalSupply}."
      },
      "transfer(address,uint256)": {
        "details": "See {IERC20-transfer}. Requirements: - `to` cannot be the zero address. - the caller must have a balance of at least `amount`."
      },
      "transferFrom(address,address,uint256)": {
        "details": "See {IERC20-transferFrom}. Emits an {Approval} event indicating the updated allowance. This is not required by the EIP. See the note at the beginning of {ERC20}. NOTE: Does not update the allowance if the current allowance is the maximum `uint256`. Requirements: - `from` and `to` cannot be the zero address. - `from` must have a balance of at least `amount`. - the caller must have allowance for ``from``'s tokens of at least `amount`."
      },
      "transferOwnership(address)": {
        "details": "Transfers ownership of the contract to a new account (`newOwner`). Can only be called by the current owner."
      }
    },
    "version": 1
  },
  "userdoc": {
    "kind": "user",
    "methods": {},
    "version": 1
  }
}