{
  "contractName": "Dice",
  "abi": [
    {
      "inputs": [],
      "stateMutability": "nonpayable",
      "type": "constructor"
    },
    {
      "anonymous": false,
      "inputs": [
        {
          "indexed": true,
          "internalType": "address",
          "name": "owner",
          "type": "address"
        },
        {
          "indexed": true,
          "internalType": "address",
          "name": "spender",
          "type": "address"
        },
        {
          "indexed": false,
          "internalType": "uint256",
          "name": "value",
          "type": "uint256"
        }
      ],
      "name": "Approval",
      "type": "event"
    },
    {
      "anonymous": false,
      "inputs": [
        {
          "indexed": true,
          "internalType": "address",
          "name": "previousOwner",
          "type": "address"
        },
        {
          "indexed": true,
          "internalType": "address",
          "name": "newOwner",
          "type": "address"
        }
      ],
      "name": "OwnershipTransferred",
      "type": "event"
    },
    {
      "anonymous": false,
      "inputs": [
        {
          "indexed": true,
          "internalType": "address",
          "name": "from",
          "type": "address"
        },
        {
          "indexed": true,
          "internalType": "address",
          "name": "to",
          "type": "address"
        },
        {
          "indexed": false,
          "internalType": "uint256",
          "name": "value",
          "type": "uint256"
        }
      ],
      "name": "Transfer",
      "type": "event"
    },
    {
      "anonymous": false,
      "inputs": [
        {
          "indexed": false,
          "internalType": "address",
          "name": "player",
          "type": "address"
        },
        {
          "indexed": false,
          "internalType": "uint256",
          "name": "number",
          "type": "uint256"
        },
        {
          "indexed": false,
          "internalType": "enum Dice.direction",
          "name": "_direction",
          "type": "uint8"
        },
        {
          "indexed": false,
          "internalType": "uint256",
          "name": "value",
          "type": "uint256"
        }
      ],
      "name": "playLog",
      "type": "event"
    },
    {
      "inputs": [
        {
          "internalType": "address",
          "name": "owner",
          "type": "address"
        },
        {
          "internalType": "address",
          "name": "spender",
          "type": "address"
        }
      ],
      "name": "allowance",
      "outputs": [
        {
          "internalType": "uint256",
          "name": "",
          "type": "uint256"
        }
      ],
      "stateMutability": "view",
      "type": "function"
    },
    {
      "inputs": [
        {
          "internalType": "address",
          "name": "spender",
          "type": "address"
        },
        {
          "internalType": "uint256",
          "name": "amount",
          "type": "uint256"
        }
      ],
      "name": "approve",
      "outputs": [
        {
          "internalType": "bool",
          "name": "",
          "type": "bool"
        }
      ],
      "stateMutability": "nonpayable",
      "type": "function"
    },
    {
      "inputs": [
        {
          "internalType": "address",
          "name": "account",
          "type": "address"
        }
      ],
      "name": "balanceOf",
      "outputs": [
        {
          "internalType": "uint256",
          "name": "",
          "type": "uint256"
        }
      ],
      "stateMutability": "view",
      "type": "function"
    },
    {
      "inputs": [
        {
          "internalType": "uint256",
          "name": "amount",
          "type": "uint256"
        }
      ],
      "name": "burn",
      "outputs": [],
      "stateMutability": "nonpayable",
      "type": "function"
    },
    {
      "inputs": [
        {
          "internalType": "address",
          "name": "account",
          "type": "address"
        },
        {
          "internalType": "uint256",
          "name": "amount",
          "type": "uint256"
        }
      ],
      "name": "burnFrom",
      "outputs": [],
      "stateMutability": "nonpayable",
      "type": "function"
    },
    {
      "inputs": [],
      "name": "contractOwner",
      "outputs": [
        {
          "internalType": "address payable",
          "name": "",
          "type": "address"
        }
      ],
      "stateMutability": "view",
      "type": "function"
    },
    {
      "inputs": [],
      "name": "cryptoSalt",
      "outputs": [
        {
          "internalType": "uint256",
          "name": "",
          "type": "uint256"
        }
      ],
      "stateMutability": "view",
      "type": "function"
    },
    {
      "inputs": [],
      "name": "decimals",
      "outputs": [
        {
          "internalType": "uint8",
          "name": "",
          "type": "uint8"
        }
      ],
      "stateMutability": "view",
      "type": "function"
    },
    {
      "inputs": [
        {
          "internalType": "address",
          "name": "spender",
          "type": "address"
        },
        {
          "internalType": "uint256",
          "name": "subtractedValue",
          "type": "uint256"
        }
      ],
      "name": "decreaseAllowance",
      "outputs": [
        {
          "internalType": "bool",
          "name": "",
          "type": "bool"
        }
      ],
      "stateMutability": "nonpayable",
      "type": "function"
    },
    {
      "inputs": [
        {
          "internalType": "address",
          "name": "spender",
          "type": "address"
        },
        {
          "internalType": "uint256",
          "name": "addedValue",
          "type": "uint256"
        }
      ],
      "name": "increaseAllowance",
      "outputs": [
        {
          "internalType": "bool",
          "name": "",
          "type": "bool"
        }
      ],
      "stateMutability": "nonpayable",
      "type": "function"
    },
    {
      "inputs": [
        {
          "internalType": "address",
          "name": "to",
          "type": "address"
        },
        {
          "internalType": "uint256",
          "name": "amount",
          "type": "uint256"
        }
      ],
      "name": "mint",
      "outputs": [],
      "stateMutability": "nonpayable",
      "type": "function"
    },
    {
      "inputs": [],
      "name": "name",
      "outputs": [
        {
          "internalType": "string",
          "name": "",
          "type": "string"
        }
      ],
      "stateMutability": "view",
      "type": "function"
    },
    {
      "inputs": [],
      "name": "owner",
      "outputs": [
        {
          "internalType": "address",
          "name": "",
          "type": "address"
        }
      ],
      "stateMutability": "view",
      "type": "function"
    },
    {
      "inputs": [
        {
          "internalType": "address",
          "name": "",
          "type": "address"
        }
      ],
      "name": "players",
      "outputs": [
        {
          "internalType": "address payable",
          "name": "playerAddress",
          "type": "address"
        }
      ],
      "stateMutability": "view",
      "type": "function"
    },
    {
      "inputs": [],
      "name": "renounceOwnership",
      "outputs": [],
      "stateMutability": "nonpayable",
      "type": "function"
    },
    {
      "inputs": [],
      "name": "symbol",
      "outputs": [
        {
          "internalType": "string",
          "name": "",
          "type": "string"
        }
      ],
      "stateMutability": "view",
      "type": "function"
    },
    {
      "inputs": [],
      "name": "totalSupply",
      "outputs": [
        {
          "internalType": "uint256",
          "name": "",
          "type": "uint256"
        }
      ],
      "stateMutability": "view",
      "type": "function"
    },
    {
      "inputs": [
        {
          "internalType": "address",
          "name": "to",
          "type": "address"
        },
        {
          "internalType": "uint256",
          "name": "amount",
          "type": "uint256"
        }
      ],
      "name": "transfer",
      "outputs": [
        {
          "internalType": "bool",
          "name": "",
          "type": "bool"
        }
      ],
      "stateMutability": "nonpayable",
      "type": "function"
    },
    {
      "inputs": [
        {
          "internalType": "address",
          "name": "from",
          "type": "address"
        },
        {
          "internalType": "address",
          "name": "to",
          "type": "address"
        },
        {
          "internalType": "uint256",
          "name": "amount",
          "type": "uint256"
        }
      ],
      "name": "transferFrom",
      "outputs": [
        {
          "internalType": "bool",
          "name": "",
          "type": "bool"
        }
      ],
      "stateMutability": "nonpayable",
      "type": "function"
    },
    {
      "inputs": [
        {
          "internalType": "address",
          "name": "newOwner",
          "type": "address"
        }
      ],
      "name": "transferOwnership",
      "outputs": [],
      "stateMutability": "nonpayable",
      "type": "function"
    },
    {
      "inputs": [
        {
          "internalType": "uint256",
          "name": "_salt",
          "type": "uint256"
        }
      ],
      "name": "setSalt",
      "outputs": [
        {
          "internalType": "enum Dice.result",
          "name": "",
          "type": "uint8"
        }
      ],
      "stateMutability": "nonpayable",
      "type": "function"
    },
    {
      "inputs": [],
      "name": "getRandomNumber",
      "outputs": [
        {
          "internalType": "uint256",
          "name": "",
          "type": "uint256"
        }
      ],
      "stateMutability": "view",
      "type": "function"
    },
    {
      "inputs": [],
      "name": "initialisation",
      "outputs": [],
      "stateMutability": "nonpayable",
      "type": "function"
    },
    {
      "inputs": [],
      "name": "getPlayerInfo",
      "outputs": [
        {
          "internalType": "address",
          "name": "",
          "type": "address"
        },
        {
          "internalType": "uint8",
          "name": "",
          "type": "uint8"
        },
        {
          "internalType": "enum Dice.direction",
          "name": "",
          "type": "uint8"
        },
        {
          "internalType": "enum Dice.result",
          "name": "",
          "type": "uint8"
        }
      ],
      "stateMutability": "view",
      "type": "function"
    },
    {
      "inputs": [
        {
          "internalType": "enum Dice.direction",
          "name": "_direction",
          "type": "uint8"
        },
        {
          "internalType": "uint256",
          "name": "_amount",
          "type": "uint256"
        }
      ],
      "name": "playDice",
      "outputs": [],
      "stateMutability": "payable",
      "type": "function"
    }
  ],
  "bytecode": "0x60806040523480156200001157600080fd5b506040518060400160405280600881526020017f44496365436f696e0000000000000000000000000000000000000000000000008152506040518060400160405280600381526020017f444345000000000000000000000000000000000000000000000000000000000081525081600390816200008f919062000627565b508060049081620000a1919062000627565b505050620000c4620000b86200015460201b60201c565b6200015c60201b60201c565b6200010433620000d96200022260201b60201c565b600a620000e791906200089e565b633b9aca00620000f89190620008ef565b6200022b60201b60201c565b33600660006101000a81548173ffffffffffffffffffffffffffffffffffffffff021916908373ffffffffffffffffffffffffffffffffffffffff16021790555061aaaa60078190555062000a5e565b600033905090565b6000600560009054906101000a900473ffffffffffffffffffffffffffffffffffffffff16905081600560006101000a81548173ffffffffffffffffffffffffffffffffffffffff021916908373ffffffffffffffffffffffffffffffffffffffff1602179055508173ffffffffffffffffffffffffffffffffffffffff168173ffffffffffffffffffffffffffffffffffffffff167f8be0079c531659141344cd1fd0a4f28419497f9722a3daafe3b4186f6b6457e060405160405180910390a35050565b60006012905090565b600073ffffffffffffffffffffffffffffffffffffffff168273ffffffffffffffffffffffffffffffffffffffff16036200029d576040517f08c379a00000000000000000000000000000000000000000000000000000000081526004016200029490620009b1565b60405180910390fd5b620002b160008383620003a360201b60201c565b8060026000828254620002c59190620009d3565b92505081905550806000808473ffffffffffffffffffffffffffffffffffffffff1673ffffffffffffffffffffffffffffffffffffffff16815260200190815260200160002060008282546200031c9190620009d3565b925050819055508173ffffffffffffffffffffffffffffffffffffffff16600073ffffffffffffffffffffffffffffffffffffffff167fddf252ad1be2c89b69c2b068fc378daa952ba7f163c4a11628f55a4df523b3ef8360405162000383919062000a41565b60405180910390a36200039f60008383620003a860201b60201c565b5050565b505050565b505050565b600081519050919050565b7f4e487b7100000000000000000000000000000000000000000000000000000000600052604160045260246000fd5b7f4e487b7100000000000000000000000000000000000000000000000000000000600052602260045260246000fd5b600060028204905060018216806200042f57607f821691505b602082108103620004455762000444620003e7565b5b50919050565b60008190508160005260206000209050919050565b60006020601f8301049050919050565b600082821b905092915050565b600060088302620004af7fffffffffffffffffffffffffffffffffffffffffffffffffffffffffffffffff8262000470565b620004bb868362000470565b95508019841693508086168417925050509392505050565b6000819050919050565b6000819050919050565b60006200050862000502620004fc84620004d3565b620004dd565b620004d3565b9050919050565b6000819050919050565b6200052483620004e7565b6200053c62000533826200050f565b8484546200047d565b825550505050565b600090565b6200055362000544565b6200056081848462000519565b505050565b5b8181101562000588576200057c60008262000549565b60018101905062000566565b5050565b601f821115620005d757620005a1816200044b565b620005ac8462000460565b81016020851015620005bc578190505b620005d4620005cb8562000460565b83018262000565565b50505b505050565b600082821c905092915050565b6000620005fc60001984600802620005dc565b1980831691505092915050565b6000620006178383620005e9565b9150826002028217905092915050565b6200063282620003ad565b67ffffffffffffffff8111156200064e576200064d620003b8565b5b6200065a825462000416565b620006678282856200058c565b600060209050601f8311600181146200069f57600084156200068a578287015190505b62000696858262000609565b86555062000706565b601f198416620006af866200044b565b60005b82811015620006d957848901518255600182019150602085019450602081019050620006b2565b86831015620006f95784890151620006f5601f891682620005e9565b8355505b6001600288020188555050505b505050505050565b7f4e487b7100000000000000000000000000000000000000000000000000000000600052601160045260246000fd5b60008160011c9050919050565b6000808291508390505b60018511156200079c578086048111156200077457620007736200070e565b5b6001851615620007845780820291505b808102905062000794856200073d565b945062000754565b94509492505050565b600082620007b757600190506200088a565b81620007c757600090506200088a565b8160018114620007e05760028114620007eb5762000821565b60019150506200088a565b60ff8411156200080057620007ff6200070e565b5b8360020a9150848211156200081a57620008196200070e565b5b506200088a565b5060208310610133831016604e8410600b84101617156200085b5782820a9050838111156200085557620008546200070e565b5b6200088a565b6200086a84848460016200074a565b925090508184048111156200088457620008836200070e565b5b81810290505b9392505050565b600060ff82169050919050565b6000620008ab82620004d3565b9150620008b88362000891565b9250620008e77fffffffffffffffffffffffffffffffffffffffffffffffffffffffffffffffff8484620007a5565b905092915050565b6000620008fc82620004d3565b91506200090983620004d3565b9250817fffffffffffffffffffffffffffffffffffffffffffffffffffffffffffffffff04831182151516156200094557620009446200070e565b5b828202905092915050565b600082825260208201905092915050565b7f45524332303a206d696e7420746f20746865207a65726f206164647265737300600082015250565b600062000999601f8362000950565b9150620009a68262000961565b602082019050919050565b60006020820190508181036000830152620009cc816200098a565b9050919050565b6000620009e082620004d3565b9150620009ed83620004d3565b9250827fffffffffffffffffffffffffffffffffffffffffffffffffffffffffffffffff0382111562000a255762000a246200070e565b5b828201905092915050565b62000a3b81620004d3565b82525050565b600060208201905062000a58600083018462000a30565b92915050565b612fbc8062000a6e6000396000f3fe6080604052600436106101665760003560e01c8063715018a6116100d1578063ce606ee01161008a578063dd62ed3e11610064578063dd62ed3e14610545578063e2eb41ff14610582578063f2fde38b146105bf578063f3b5a671146105e857610166565b8063ce606ee0146104c1578063d1df81df146104ec578063dbdff2c11461051a57610166565b8063715018a6146103b157806379cc6790146103c85780638da5cb5b146103f157806395d89b411461041c578063a457c2d714610447578063a9059cbb1461048457610166565b806340c10f191161012357806340c10f19146102a357806342966c68146102cc57806359483e1a146102f5578063596dbaa5146103205780635e0cc9c61461033757806370a082311461037457610166565b806306fdde031461016b578063095ea7b31461019657806318160ddd146101d357806323b872dd146101fe578063313ce5671461023b5780633950935114610266575b600080fd5b34801561017757600080fd5b50610180610604565b60405161018d91906120df565b60405180910390f35b3480156101a257600080fd5b506101bd60048036038101906101b8919061219a565b610696565b6040516101ca91906121f5565b60405180910390f35b3480156101df57600080fd5b506101e86106b9565b6040516101f5919061221f565b60405180910390f35b34801561020a57600080fd5b506102256004803603810190610220919061223a565b6106c3565b60405161023291906121f5565b60405180910390f35b34801561024757600080fd5b506102506106f2565b60405161025d91906122a9565b60405180910390f35b34801561027257600080fd5b5061028d6004803603810190610288919061219a565b6106fb565b60405161029a91906121f5565b60405180910390f35b3480156102af57600080fd5b506102ca60048036038101906102c5919061219a565b610732565b005b3480156102d857600080fd5b506102f360048036038101906102ee91906122c4565b610748565b005b34801561030157600080fd5b5061030a61075c565b604051610317919061221f565b60405180910390f35b34801561032c57600080fd5b50610335610762565b005b34801561034357600080fd5b5061035e600480360381019061035991906122c4565b6107e5565b60405161036b9190612368565b60405180910390f35b34801561038057600080fd5b5061039b60048036038101906103969190612383565b6107f7565b6040516103a8919061221f565b60405180910390f35b3480156103bd57600080fd5b506103c661083f565b005b3480156103d457600080fd5b506103ef60048036038101906103ea919061219a565b610853565b005b3480156103fd57600080fd5b50610406610873565b60405161041391906123bf565b60405180910390f35b34801561042857600080fd5b5061043161089d565b60405161043e91906120df565b60405180910390f35b34801561045357600080fd5b5061046e6004803603810190610469919061219a565b61092f565b60405161047b91906121f5565b60405180910390f35b34801561049057600080fd5b506104ab60048036038101906104a6919061219a565b6109a6565b6040516104b891906121f5565b60405180910390f35b3480156104cd57600080fd5b506104d66109c9565b6040516104e391906123fb565b60405180910390f35b3480156104f857600080fd5b506105016109ef565b604051610511949392919061245e565b60405180910390f35b34801561052657600080fd5b5061052f610cb5565b60405161053c919061221f565b60405180910390f35b34801561055157600080fd5b5061056c600480360381019061056791906124a3565b610cec565b604051610579919061221f565b60405180910390f35b34801561058e57600080fd5b506105a960048036038101906105a49190612383565b610d73565b6040516105b691906123fb565b60405180910390f35b3480156105cb57600080fd5b506105e660048036038101906105e19190612383565b610db1565b005b61060260048036038101906105fd9190612508565b610e34565b005b60606003805461061390612577565b80601f016020809104026020016040519081016040528092919081815260200182805461063f90612577565b801561068c5780601f106106615761010080835404028352916020019161068c565b820191906000526020600020905b81548152906001019060200180831161066f57829003601f168201915b5050505050905090565b6000806106a16116e7565b90506106ae8185856116ef565b600191505092915050565b6000600254905090565b6000806106ce6116e7565b90506106db8582856118b8565b6106e6858585611944565b60019150509392505050565b60006012905090565b6000806107066116e7565b90506107278185856107188589610cec565b61072291906125d7565b6116ef565b600191505092915050565b61073a611bc3565b6107448282611c41565b5050565b6107596107536116e7565b82611da0565b50565b60075481565b33600860003373ffffffffffffffffffffffffffffffffffffffff1673ffffffffffffffffffffffffffffffffffffffff16815260200190815260200160002060000160006101000a81548173ffffffffffffffffffffffffffffffffffffffff021916908373ffffffffffffffffffffffffffffffffffffffff160217905550565b60008160078190555060009050919050565b60008060008373ffffffffffffffffffffffffffffffffffffffff1673ffffffffffffffffffffffffffffffffffffffff168152602001908152602001600020549050919050565b610847611bc3565b6108516000611f76565b565b6108658261085f6116e7565b836118b8565b61086f8282611da0565b5050565b6000600560009054906101000a900473ffffffffffffffffffffffffffffffffffffffff16905090565b6060600480546108ac90612577565b80601f01602080910402602001604051908101604052809291908181526020018280546108d890612577565b80156109255780601f106108fa57610100808354040283529160200191610925565b820191906000526020600020905b81548152906001019060200180831161090857829003601f168201915b5050505050905090565b60008061093a6116e7565b905060006109488286610cec565b90508381101561098d576040517f08c379a00000000000000000000000000000000000000000000000000000000081526004016109849061269f565b60405180910390fd5b61099a82868684036116ef565b60019250505092915050565b6000806109b16116e7565b90506109be818585611944565b600191505092915050565b600660009054906101000a900473ffffffffffffffffffffffffffffffffffffffff1681565b600080600080600860003373ffffffffffffffffffffffffffffffffffffffff1673ffffffffffffffffffffffffffffffffffffffff16815260200190815260200160002060000160009054906101000a900473ffffffffffffffffffffffffffffffffffffffff16600860003373ffffffffffffffffffffffffffffffffffffffff1673ffffffffffffffffffffffffffffffffffffffff1681526020019081526020016000206001016001600860003373ffffffffffffffffffffffffffffffffffffffff1673ffffffffffffffffffffffffffffffffffffffff16815260200190815260200160002060010180549050610aec91906126bf565b81548110610afd57610afc6126f3565b5b90600052602060002090602091828204019190069054906101000a900460ff16600860003373ffffffffffffffffffffffffffffffffffffffff1673ffffffffffffffffffffffffffffffffffffffff1681526020019081526020016000206002016001600860003373ffffffffffffffffffffffffffffffffffffffff1673ffffffffffffffffffffffffffffffffffffffff16815260200190815260200160002060020180549050610bb191906126bf565b81548110610bc257610bc16126f3565b5b90600052602060002090602091828204019190069054906101000a900460ff16600860003373ffffffffffffffffffffffffffffffffffffffff1673ffffffffffffffffffffffffffffffffffffffff1681526020019081526020016000206003016001600860003373ffffffffffffffffffffffffffffffffffffffff1673ffffffffffffffffffffffffffffffffffffffff16815260200190815260200160002060030180549050610c7691906126bf565b81548110610c8757610c866126f3565b5b90600052602060002090602091828204019190069054906101000a900460ff16935093509350935090919293565b6000600754441842604051602001610cce929190612743565b6040516020818303038152906040528051906020012060001c905090565b6000600160008473ffffffffffffffffffffffffffffffffffffffff1673ffffffffffffffffffffffffffffffffffffffff16815260200190815260200160002060008373ffffffffffffffffffffffffffffffffffffffff1673ffffffffffffffffffffffffffffffffffffffff16815260200190815260200160002054905092915050565b60086020528060005260406000206000915090508060000160009054906101000a900473ffffffffffffffffffffffffffffffffffffffff16905081565b610db9611bc3565b600073ffffffffffffffffffffffffffffffffffffffff168173ffffffffffffffffffffffffffffffffffffffff1603610e28576040517f08c379a0000000000000000000000000000000000000000000000000000000008152600401610e1f906127e1565b60405180910390fd5b610e3181611f76565b50565b60006002811115610e4857610e476122f1565b5b826002811115610e5b57610e5a6122f1565b5b1480610e8b575060016002811115610e7657610e756122f1565b5b826002811115610e8957610e886122f1565b5b145b80610eb95750600280811115610ea457610ea36122f1565b5b826002811115610eb757610eb66122f1565b5b145b610ef8576040517f08c379a0000000000000000000000000000000000000000000000000000000008152600401610eef9061284d565b60405180910390fd5b60006065610f04610cb5565b610f0e919061289c565b9050600860003373ffffffffffffffffffffffffffffffffffffffff1673ffffffffffffffffffffffffffffffffffffffff1681526020019081526020016000206001018190806001815401808255809150506001900390600052602060002090602091828204019190069091909190916101000a81548160ff021916908360ff160217905550600860003373ffffffffffffffffffffffffffffffffffffffff1673ffffffffffffffffffffffffffffffffffffffff1681526020019081526020016000206002018390806001815401808255809150506001900390600052602060002090602091828204019190069091909190916101000a81548160ff02191690836002811115611024576110236122f1565b5b02179055506007600081548092919061103c906128cd565b91905055507fe9292d8d1e39a1684e5c8f41f67409c6f88e062828e3cf5f732c3136b04b4e53600860003373ffffffffffffffffffffffffffffffffffffffff1673ffffffffffffffffffffffffffffffffffffffff16815260200190815260200160002060000160009054906101000a900473ffffffffffffffffffffffffffffffffffffffff168285346040516110d894939291906129a5565b60405180910390a1600060028111156110f4576110f36122f1565b5b836002811115611107576111066122f1565b5b036112d55760328160ff16111561120d57611145600660009054906101000a900473ffffffffffffffffffffffffffffffffffffffff1633846116ef565b611172600660009054906101000a900473ffffffffffffffffffffffffffffffffffffffff1633846106c3565b50600860003373ffffffffffffffffffffffffffffffffffffffff1673ffffffffffffffffffffffffffffffffffffffff168152602001908152602001600020600301600290806001815401808255809150506001900390600052602060002090602091828204019190069091909190916101000a81548160ff02191690836003811115611203576112026122f1565b5b02179055506112d0565b600860003373ffffffffffffffffffffffffffffffffffffffff1673ffffffffffffffffffffffffffffffffffffffff168152602001908152602001600020600301600390806001815401808255809150506001900390600052602060002090602091828204019190069091909190916101000a81548160ff0219169083600381111561129d5761129c6122f1565b5b02179055506112ce600660009054906101000a900473ffffffffffffffffffffffffffffffffffffffff16836109a6565b505b6116e2565b600160028111156112e9576112e86122f1565b5b8360028111156112fc576112fb6122f1565b5b036114ca5760318160ff1610156114025761133a600660009054906101000a900473ffffffffffffffffffffffffffffffffffffffff1633846116ef565b611367600660009054906101000a900473ffffffffffffffffffffffffffffffffffffffff1633846106c3565b50600860003373ffffffffffffffffffffffffffffffffffffffff1673ffffffffffffffffffffffffffffffffffffffff168152602001908152602001600020600301600290806001815401808255809150506001900390600052602060002090602091828204019190069091909190916101000a81548160ff021916908360038111156113f8576113f76122f1565b5b02179055506114c5565b600860003373ffffffffffffffffffffffffffffffffffffffff1673ffffffffffffffffffffffffffffffffffffffff168152602001908152602001600020600301600390806001815401808255809150506001900390600052602060002090602091828204019190069091909190916101000a81548160ff02191690836003811115611492576114916122f1565b5b02179055506114c3600660009054906101000a900473ffffffffffffffffffffffffffffffffffffffff16836109a6565b505b6116e1565b6002808111156114dd576114dc6122f1565b5b8360028111156114f0576114ef6122f1565b5b036116e05760318160ff16148061150a575060328160ff16145b1561161c57611548600660009054906101000a900473ffffffffffffffffffffffffffffffffffffffff1633600a8561154391906129ea565b6116ef565b611581600660009054906101000a900473ffffffffffffffffffffffffffffffffffffffff1633600a8561157c91906129ea565b6106c3565b50600860003373ffffffffffffffffffffffffffffffffffffffff1673ffffffffffffffffffffffffffffffffffffffff168152602001908152602001600020600301600290806001815401808255809150506001900390600052602060002090602091828204019190069091909190916101000a81548160ff02191690836003811115611612576116116122f1565b5b02179055506116df565b600860003373ffffffffffffffffffffffffffffffffffffffff1673ffffffffffffffffffffffffffffffffffffffff168152602001908152602001600020600301600390806001815401808255809150506001900390600052602060002090602091828204019190069091909190916101000a81548160ff021916908360038111156116ac576116ab6122f1565b5b02179055506116dd600660009054906101000a900473ffffffffffffffffffffffffffffffffffffffff16836109a6565b505b5b5b5b505050565b600033905090565b600073ffffffffffffffffffffffffffffffffffffffff168373ffffffffffffffffffffffffffffffffffffffff160361175e576040517f08c379a000000000000000000000000000000000000000000000000000000000815260040161175590612ab6565b60405180910390fd5b600073ffffffffffffffffffffffffffffffffffffffff168273ffffffffffffffffffffffffffffffffffffffff16036117cd576040517f08c379a00000000000000000000000000000000000000000000000000000000081526004016117c490612b48565b60405180910390fd5b80600160008573ffffffffffffffffffffffffffffffffffffffff1673ffffffffffffffffffffffffffffffffffffffff16815260200190815260200160002060008473ffffffffffffffffffffffffffffffffffffffff1673ffffffffffffffffffffffffffffffffffffffff168152602001908152602001600020819055508173ffffffffffffffffffffffffffffffffffffffff168373ffffffffffffffffffffffffffffffffffffffff167f8c5be1e5ebec7d5bd14f71427d1e84f3dd0314c0f7b2291e5b200ac8c7c3b925836040516118ab919061221f565b60405180910390a3505050565b60006118c48484610cec565b90507fffffffffffffffffffffffffffffffffffffffffffffffffffffffffffffffff811461193e5781811015611930576040517f08c379a000000000000000000000000000000000000000000000000000000000815260040161192790612bb4565b60405180910390fd5b61193d84848484036116ef565b5b50505050565b600073ffffffffffffffffffffffffffffffffffffffff168373ffffffffffffffffffffffffffffffffffffffff16036119b3576040517f08c379a00000000000000000000000000000000000000000000000000000000081526004016119aa90612c46565b60405180910390fd5b600073ffffffffffffffffffffffffffffffffffffffff168273ffffffffffffffffffffffffffffffffffffffff1603611a22576040517f08c379a0000000000000000000000000000000000000000000000000000000008152600401611a1990612cd8565b60405180910390fd5b611a2d83838361203c565b60008060008573ffffffffffffffffffffffffffffffffffffffff1673ffffffffffffffffffffffffffffffffffffffff16815260200190815260200160002054905081811015611ab3576040517f08c379a0000000000000000000000000000000000000000000000000000000008152600401611aaa90612d6a565b60405180910390fd5b8181036000808673ffffffffffffffffffffffffffffffffffffffff1673ffffffffffffffffffffffffffffffffffffffff16815260200190815260200160002081905550816000808573ffffffffffffffffffffffffffffffffffffffff1673ffffffffffffffffffffffffffffffffffffffff1681526020019081526020016000206000828254611b4691906125d7565b925050819055508273ffffffffffffffffffffffffffffffffffffffff168473ffffffffffffffffffffffffffffffffffffffff167fddf252ad1be2c89b69c2b068fc378daa952ba7f163c4a11628f55a4df523b3ef84604051611baa919061221f565b60405180910390a3611bbd848484612041565b50505050565b611bcb6116e7565b73ffffffffffffffffffffffffffffffffffffffff16611be9610873565b73ffffffffffffffffffffffffffffffffffffffff1614611c3f576040517f08c379a0000000000000000000000000000000000000000000000000000000008152600401611c3690612dd6565b60405180910390fd5b565b600073ffffffffffffffffffffffffffffffffffffffff168273ffffffffffffffffffffffffffffffffffffffff1603611cb0576040517f08c379a0000000000000000000000000000000000000000000000000000000008152600401611ca790612e42565b60405180910390fd5b611cbc6000838361203c565b8060026000828254611cce91906125d7565b92505081905550806000808473ffffffffffffffffffffffffffffffffffffffff1673ffffffffffffffffffffffffffffffffffffffff1681526020019081526020016000206000828254611d2391906125d7565b925050819055508173ffffffffffffffffffffffffffffffffffffffff16600073ffffffffffffffffffffffffffffffffffffffff167fddf252ad1be2c89b69c2b068fc378daa952ba7f163c4a11628f55a4df523b3ef83604051611d88919061221f565b60405180910390a3611d9c60008383612041565b5050565b600073ffffffffffffffffffffffffffffffffffffffff168273ffffffffffffffffffffffffffffffffffffffff1603611e0f576040517f08c379a0000000000000000000000000000000000000000000000000000000008152600401611e0690612ed4565b60405180910390fd5b611e1b8260008361203c565b60008060008473ffffffffffffffffffffffffffffffffffffffff1673ffffffffffffffffffffffffffffffffffffffff16815260200190815260200160002054905081811015611ea1576040517f08c379a0000000000000000000000000000000000000000000000000000000008152600401611e9890612f66565b60405180910390fd5b8181036000808573ffffffffffffffffffffffffffffffffffffffff1673ffffffffffffffffffffffffffffffffffffffff168152602001908152602001600020819055508160026000828254611ef891906126bf565b92505081905550600073ffffffffffffffffffffffffffffffffffffffff168373ffffffffffffffffffffffffffffffffffffffff167fddf252ad1be2c89b69c2b068fc378daa952ba7f163c4a11628f55a4df523b3ef84604051611f5d919061221f565b60405180910390a3611f7183600084612041565b505050565b6000600560009054906101000a900473ffffffffffffffffffffffffffffffffffffffff16905081600560006101000a81548173ffffffffffffffffffffffffffffffffffffffff021916908373ffffffffffffffffffffffffffffffffffffffff1602179055508173ffffffffffffffffffffffffffffffffffffffff168173ffffffffffffffffffffffffffffffffffffffff167f8be0079c531659141344cd1fd0a4f28419497f9722a3daafe3b4186f6b6457e060405160405180910390a35050565b505050565b505050565b600081519050919050565b600082825260208201905092915050565b60005b83811015612080578082015181840152602081019050612065565b8381111561208f576000848401525b50505050565b6000601f19601f8301169050919050565b60006120b182612046565b6120bb8185612051565b93506120cb818560208601612062565b6120d481612095565b840191505092915050565b600060208201905081810360008301526120f981846120a6565b905092915050565b600080fd5b600073ffffffffffffffffffffffffffffffffffffffff82169050919050565b600061213182612106565b9050919050565b61214181612126565b811461214c57600080fd5b50565b60008135905061215e81612138565b92915050565b6000819050919050565b61217781612164565b811461218257600080fd5b50565b6000813590506121948161216e565b92915050565b600080604083850312156121b1576121b0612101565b5b60006121bf8582860161214f565b92505060206121d085828601612185565b9150509250929050565b60008115159050919050565b6121ef816121da565b82525050565b600060208201905061220a60008301846121e6565b92915050565b61221981612164565b82525050565b60006020820190506122346000830184612210565b92915050565b60008060006060848603121561225357612252612101565b5b60006122618682870161214f565b93505060206122728682870161214f565b925050604061228386828701612185565b9150509250925092565b600060ff82169050919050565b6122a38161228d565b82525050565b60006020820190506122be600083018461229a565b92915050565b6000602082840312156122da576122d9612101565b5b60006122e884828501612185565b91505092915050565b7f4e487b7100000000000000000000000000000000000000000000000000000000600052602160045260246000fd5b60048110612331576123306122f1565b5b50565b600081905061234282612320565b919050565b600061235282612334565b9050919050565b61236281612347565b82525050565b600060208201905061237d6000830184612359565b92915050565b60006020828403121561239957612398612101565b5b60006123a78482850161214f565b91505092915050565b6123b981612126565b82525050565b60006020820190506123d460008301846123b0565b92915050565b60006123e582612106565b9050919050565b6123f5816123da565b82525050565b600060208201905061241060008301846123ec565b92915050565b60038110612427576124266122f1565b5b50565b600081905061243882612416565b919050565b60006124488261242a565b9050919050565b6124588161243d565b82525050565b600060808201905061247360008301876123b0565b612480602083018661229a565b61248d604083018561244f565b61249a6060830184612359565b95945050505050565b600080604083850312156124ba576124b9612101565b5b60006124c88582860161214f565b92505060206124d98582860161214f565b9150509250929050565b600381106124f057600080fd5b50565b600081359050612502816124e3565b92915050565b6000806040838503121561251f5761251e612101565b5b600061252d858286016124f3565b925050602061253e85828601612185565b9150509250929050565b7f4e487b7100000000000000000000000000000000000000000000000000000000600052602260045260246000fd5b6000600282049050600182168061258f57607f821691505b6020821081036125a2576125a1612548565b5b50919050565b7f4e487b7100000000000000000000000000000000000000000000000000000000600052601160045260246000fd5b60006125e282612164565b91506125ed83612164565b9250827fffffffffffffffffffffffffffffffffffffffffffffffffffffffffffffffff03821115612622576126216125a8565b5b828201905092915050565b7f45524332303a2064656372656173656420616c6c6f77616e63652062656c6f7760008201527f207a65726f000000000000000000000000000000000000000000000000000000602082015250565b6000612689602583612051565b91506126948261262d565b604082019050919050565b600060208201905081810360008301526126b88161267c565b9050919050565b60006126ca82612164565b91506126d583612164565b9250828210156126e8576126e76125a8565b5b828203905092915050565b7f4e487b7100000000000000000000000000000000000000000000000000000000600052603260045260246000fd5b6000819050919050565b61273d61273882612164565b612722565b82525050565b600061274f828561272c565b60208201915061275f828461272c565b6020820191508190509392505050565b7f4f776e61626c653a206e6577206f776e657220697320746865207a65726f206160008201527f6464726573730000000000000000000000000000000000000000000000000000602082015250565b60006127cb602683612051565b91506127d68261276f565b604082019050919050565b600060208201905081810360008301526127fa816127be565b9050919050565b7f57726f6e672076616c7565000000000000000000000000000000000000000000600082015250565b6000612837600b83612051565b915061284282612801565b602082019050919050565b600060208201905081810360008301526128668161282a565b9050919050565b7f4e487b7100000000000000000000000000000000000000000000000000000000600052601260045260246000fd5b60006128a782612164565b91506128b283612164565b9250826128c2576128c161286d565b5b828206905092915050565b60006128d882612164565b91507fffffffffffffffffffffffffffffffffffffffffffffffffffffffffffffffff820361290a576129096125a8565b5b600182019050919050565b6000819050919050565b600061293a61293561293084612106565b612915565b612106565b9050919050565b600061294c8261291f565b9050919050565b600061295e82612941565b9050919050565b61296e81612953565b82525050565b600061298f61298a6129858461228d565b612915565b612164565b9050919050565b61299f81612974565b82525050565b60006080820190506129ba6000830187612965565b6129c76020830186612996565b6129d4604083018561244f565b6129e16060830184612210565b95945050505050565b60006129f582612164565b9150612a0083612164565b9250817fffffffffffffffffffffffffffffffffffffffffffffffffffffffffffffffff0483118215151615612a3957612a386125a8565b5b828202905092915050565b7f45524332303a20617070726f76652066726f6d20746865207a65726f2061646460008201527f7265737300000000000000000000000000000000000000000000000000000000602082015250565b6000612aa0602483612051565b9150612aab82612a44565b604082019050919050565b60006020820190508181036000830152612acf81612a93565b9050919050565b7f45524332303a20617070726f766520746f20746865207a65726f20616464726560008201527f7373000000000000000000000000000000000000000000000000000000000000602082015250565b6000612b32602283612051565b9150612b3d82612ad6565b604082019050919050565b60006020820190508181036000830152612b6181612b25565b9050919050565b7f45524332303a20696e73756666696369656e7420616c6c6f77616e6365000000600082015250565b6000612b9e601d83612051565b9150612ba982612b68565b602082019050919050565b60006020820190508181036000830152612bcd81612b91565b9050919050565b7f45524332303a207472616e736665722066726f6d20746865207a65726f20616460008201527f6472657373000000000000000000000000000000000000000000000000000000602082015250565b6000612c30602583612051565b9150612c3b82612bd4565b604082019050919050565b60006020820190508181036000830152612c5f81612c23565b9050919050565b7f45524332303a207472616e7366657220746f20746865207a65726f206164647260008201527f6573730000000000000000000000000000000000000000000000000000000000602082015250565b6000612cc2602383612051565b9150612ccd82612c66565b604082019050919050565b60006020820190508181036000830152612cf181612cb5565b9050919050565b7f45524332303a207472616e7366657220616d6f756e742065786365656473206260008201527f616c616e63650000000000000000000000000000000000000000000000000000602082015250565b6000612d54602683612051565b9150612d5f82612cf8565b604082019050919050565b60006020820190508181036000830152612d8381612d47565b9050919050565b7f4f776e61626c653a2063616c6c6572206973206e6f7420746865206f776e6572600082015250565b6000612dc0602083612051565b9150612dcb82612d8a565b602082019050919050565b60006020820190508181036000830152612def81612db3565b9050919050565b7f45524332303a206d696e7420746f20746865207a65726f206164647265737300600082015250565b6000612e2c601f83612051565b9150612e3782612df6565b602082019050919050565b60006020820190508181036000830152612e5b81612e1f565b9050919050565b7f45524332303a206275726e2066726f6d20746865207a65726f2061646472657360008201527f7300000000000000000000000000000000000000000000000000000000000000602082015250565b6000612ebe602183612051565b9150612ec982612e62565b604082019050919050565b60006020820190508181036000830152612eed81612eb1565b9050919050565b7f45524332303a206275726e20616d6f756e7420657863656564732062616c616e60008201527f6365000000000000000000000000000000000000000000000000000000000000602082015250565b6000612f50602283612051565b9150612f5b82612ef4565b604082019050919050565b60006020820190508181036000830152612f7f81612f43565b905091905056fea26469706673582212203577fe0ebe58a416ffb7bdb07f42ccb5e6e53a372a29381ced00a0b6d3a4c05e64736f6c634300080f0033",
  "immutableReferences": {},
  "source": "// SPDX-License-Identifier: MIT\npragma solidity ^0.8.4;\n\nimport \"./DiceToken.sol\";\n\ncontract Dice is DiceCoin{\n    address payable public contractOwner;\n    uint public cryptoSalt; \n    enum result {\n        OK, \n        ERROR, \n        WIN, \n        LOSE\n    }\n    enum direction {\n        UP, \n        DOWN, \n        ZERO}\n    struct Player{\n        address payable playerAddress;\n        uint8[] rolls;\n        direction[] directions;\n        result[] results;\n    }\n\n    mapping (address => Player) public players;\n    \n    constructor(){\n        contractOwner = payable(msg.sender);\n        cryptoSalt = 0xAAAA; // Default salt\n    }\n\n    event playLog(address player, \n                  uint number, \n                  direction _direction, \n                  uint value\n                 );\n    //Everyone can change salt value\n    function setSalt(uint _salt) public returns (result){\n        cryptoSalt = _salt;\n        return result.OK;\n    }\n    //Generate random number\n    function getRandomNumber() view public returns (uint) {\n        return uint(keccak256(abi.encodePacked((block.difficulty ^ cryptoSalt), block.timestamp)));\n    }\n\n    function initialisation() public {\n        players[msg.sender].playerAddress = payable(msg.sender);\n    }\n\n    function getPlayerInfo() public view returns (address, uint8, direction, result){\n        return (players[msg.sender].playerAddress, \n                players[msg.sender].rolls[players[msg.sender].rolls.length - 1],\n                players[msg.sender].directions[players[msg.sender].directions.length - 1],\n                players[msg.sender].results[players[msg.sender].results.length - 1]) ;\n    }\n\n    function playDice(direction _direction, uint _amount) public payable {\n        require(_direction == direction.UP || \n                _direction == direction.DOWN || \n                _direction == direction.ZERO, 'Wrong value');\n\n        uint8 randomNumber = uint8(getRandomNumber() % 101);\n        players[msg.sender].rolls.push(randomNumber);\n        players[msg.sender].directions.push(_direction);\n        \n        cryptoSalt++;\n         emit playLog(players[msg.sender].playerAddress, \n                      randomNumber, \n                      _direction, \n                      msg.value\n                     );\n\n        if(_direction == direction.UP){\n            if(randomNumber > 50){\n            //    players[msg.sender].playerAddress.transfer(msg.value * 2);\n                _approve(contractOwner, msg.sender, _amount);\n                transferFrom(contractOwner, msg.sender, _amount);\n                players[msg.sender].results.push(result.WIN);\n            }else{               \n                players[msg.sender].results.push(result.LOSE);\n                transfer(contractOwner, _amount);\n            }\n        }else if(_direction == direction.DOWN){\n            if(randomNumber < 49){\n            //    players[msg.sender].playerAddress.transfer(msg.value * 2);\n                _approve(contractOwner, msg.sender, _amount);\n                transferFrom(contractOwner, msg.sender, _amount);\n                players[msg.sender].results.push(result.WIN);\n            }else{\n                players[msg.sender].results.push(result.LOSE);\n                transfer(contractOwner, _amount);\n            }\n        }else if(_direction == direction.ZERO){\n            if(randomNumber == 49 || randomNumber == 50 ){\n             //   players[msg.sender].playerAddress.transfer(msg.value * 10);\n                _approve(contractOwner, msg.sender, _amount * 10);\n                transferFrom(contractOwner, msg.sender, _amount * 10);\n                players[msg.sender].results.push(result.WIN);\n            }else{\n                players[msg.sender].results.push(result.LOSE);\n                transfer(contractOwner, _amount);\n            }\n        }\n    }\n}\n",
  "sourcePath": "/home/artem/truffleProjects/proj2/contracts/Dice.sol",
  "compiler": {
    "name": "solc",
    "version": "0.8.15+commit.e14f2714.Emscripten.clang"
  },
  "schemaVersion": "3.4.7",
  "updatedAt": "2022-07-24T09:57:59.626Z",
  "devdoc": {
    "kind": "dev",
    "methods": {
      "allowance(address,address)": {
        "details": "See {IERC20-allowance}."
      },
      "approve(address,uint256)": {
        "details": "See {IERC20-approve}. NOTE: If `amount` is the maximum `uint256`, the allowance is not updated on `transferFrom`. This is semantically equivalent to an infinite approval. Requirements: - `spender` cannot be the zero address."
      },
      "balanceOf(address)": {
        "details": "See {IERC20-balanceOf}."
      },
      "burn(uint256)": {
        "details": "Destroys `amount` tokens from the caller. See {ERC20-_burn}."
      },
      "burnFrom(address,uint256)": {
        "details": "Destroys `amount` tokens from `account`, deducting from the caller's allowance. See {ERC20-_burn} and {ERC20-allowance}. Requirements: - the caller must have allowance for ``accounts``'s tokens of at least `amount`."
      },
      "decimals()": {
        "details": "Returns the number of decimals used to get its user representation. For example, if `decimals` equals `2`, a balance of `505` tokens should be displayed to a user as `5.05` (`505 / 10 ** 2`). Tokens usually opt for a value of 18, imitating the relationship between Ether and Wei. This is the value {ERC20} uses, unless this function is overridden; NOTE: This information is only used for _display_ purposes: it in no way affects any of the arithmetic of the contract, including {IERC20-balanceOf} and {IERC20-transfer}."
      },
      "decreaseAllowance(address,uint256)": {
        "details": "Atomically decreases the allowance granted to `spender` by the caller. This is an alternative to {approve} that can be used as a mitigation for problems described in {IERC20-approve}. Emits an {Approval} event indicating the updated allowance. Requirements: - `spender` cannot be the zero address. - `spender` must have allowance for the caller of at least `subtractedValue`."
      },
      "increaseAllowance(address,uint256)": {
        "details": "Atomically increases the allowance granted to `spender` by the caller. This is an alternative to {approve} that can be used as a mitigation for problems described in {IERC20-approve}. Emits an {Approval} event indicating the updated allowance. Requirements: - `spender` cannot be the zero address."
      },
      "name()": {
        "details": "Returns the name of the token."
      },
      "owner()": {
        "details": "Returns the address of the current owner."
      },
      "renounceOwnership()": {
        "details": "Leaves the contract without owner. It will not be possible to call `onlyOwner` functions anymore. Can only be called by the current owner. NOTE: Renouncing ownership will leave the contract without an owner, thereby removing any functionality that is only available to the owner."
      },
      "symbol()": {
        "details": "Returns the symbol of the token, usually a shorter version of the name."
      },
      "totalSupply()": {
        "details": "See {IERC20-totalSupply}."
      },
      "transfer(address,uint256)": {
        "details": "See {IERC20-transfer}. Requirements: - `to` cannot be the zero address. - the caller must have a balance of at least `amount`."
      },
      "transferFrom(address,address,uint256)": {
        "details": "See {IERC20-transferFrom}. Emits an {Approval} event indicating the updated allowance. This is not required by the EIP. See the note at the beginning of {ERC20}. NOTE: Does not update the allowance if the current allowance is the maximum `uint256`. Requirements: - `from` and `to` cannot be the zero address. - `from` must have a balance of at least `amount`. - the caller must have allowance for ``from``'s tokens of at least `amount`."
      },
      "transferOwnership(address)": {
        "details": "Transfers ownership of the contract to a new account (`newOwner`). Can only be called by the current owner."
      }
    },
    "version": 1
  },
  "userdoc": {
    "kind": "user",
    "methods": {},
    "version": 1
  }
}