{
  "contractName": "Dice",
  "abi": [
    {
      "inputs": [],
      "stateMutability": "nonpayable",
      "type": "constructor"
    },
    {
      "anonymous": false,
      "inputs": [
        {
          "indexed": false,
          "internalType": "address",
          "name": "player",
          "type": "address"
        },
        {
          "indexed": false,
          "internalType": "uint256",
          "name": "number",
          "type": "uint256"
        },
        {
          "indexed": false,
          "internalType": "enum Dice.direction",
          "name": "_direction",
          "type": "uint8"
        },
        {
          "indexed": false,
          "internalType": "uint256",
          "name": "value",
          "type": "uint256"
        }
      ],
      "name": "playLog",
      "type": "event"
    },
    {
      "inputs": [],
      "name": "cryptoSalt",
      "outputs": [
        {
          "internalType": "uint256",
          "name": "",
          "type": "uint256"
        }
      ],
      "stateMutability": "view",
      "type": "function",
      "constant": true
    },
    {
      "inputs": [],
      "name": "owner",
      "outputs": [
        {
          "internalType": "address payable",
          "name": "",
          "type": "address"
        }
      ],
      "stateMutability": "view",
      "type": "function",
      "constant": true
    },
    {
      "inputs": [
        {
          "internalType": "address",
          "name": "",
          "type": "address"
        }
      ],
      "name": "players",
      "outputs": [
        {
          "internalType": "address payable",
          "name": "playerAddress",
          "type": "address"
        }
      ],
      "stateMutability": "view",
      "type": "function",
      "constant": true
    },
    {
      "inputs": [
        {
          "internalType": "uint256",
          "name": "_salt",
          "type": "uint256"
        }
      ],
      "name": "setSalt",
      "outputs": [
        {
          "internalType": "enum Dice.result",
          "name": "",
          "type": "uint8"
        }
      ],
      "stateMutability": "nonpayable",
      "type": "function"
    },
    {
      "inputs": [],
      "name": "getRandomNumber",
      "outputs": [
        {
          "internalType": "uint256",
          "name": "",
          "type": "uint256"
        }
      ],
      "stateMutability": "view",
      "type": "function",
      "constant": true
    },
    {
      "inputs": [],
      "name": "initialisation",
      "outputs": [],
      "stateMutability": "nonpayable",
      "type": "function"
    },
    {
      "inputs": [],
      "name": "getPlayerInfo",
      "outputs": [
        {
          "internalType": "address",
          "name": "",
          "type": "address"
        },
        {
          "internalType": "uint8",
          "name": "",
          "type": "uint8"
        },
        {
          "internalType": "enum Dice.direction",
          "name": "",
          "type": "uint8"
        },
        {
          "internalType": "enum Dice.result",
          "name": "",
          "type": "uint8"
        }
      ],
      "stateMutability": "view",
      "type": "function",
      "constant": true
    },
    {
      "inputs": [
        {
          "internalType": "enum Dice.direction",
          "name": "_direction",
          "type": "uint8"
        }
      ],
      "name": "playDice",
      "outputs": [],
      "stateMutability": "payable",
      "type": "function",
      "payable": true
    }
  ],
  "bytecode": "0x608060405234801561001057600080fd5b50336000806101000a81548173ffffffffffffffffffffffffffffffffffffffff021916908373ffffffffffffffffffffffffffffffffffffffff16021790555061aaaa6001819055506114b8806100696000396000f3fe60806040526004361061007b5760003560e01c8063a6317b6f1161004e578063a6317b6f1461012a578063d1df81df14610146578063dbdff2c114610174578063e2eb41ff1461019f5761007b565b806359483e1a14610080578063596dbaa5146100ab5780635e0cc9c6146100c25780638da5cb5b146100ff575b600080fd5b34801561008c57600080fd5b506100956101dc565b6040516100a29190610eec565b60405180910390f35b3480156100b757600080fd5b506100c06101e2565b005b3480156100ce57600080fd5b506100e960048036038101906100e49190610f38565b610265565b6040516100f69190610fdc565b60405180910390f35b34801561010b57600080fd5b50610114610277565b6040516101219190611038565b60405180910390f35b610144600480360381019061013f9190611078565b61029b565b005b34801561015257600080fd5b5061015b610b98565b60405161016b949392919061112a565b60405180910390f35b34801561018057600080fd5b50610189610e5e565b6040516101969190610eec565b60405180910390f35b3480156101ab57600080fd5b506101c660048036038101906101c1919061119b565b610e95565b6040516101d39190611038565b60405180910390f35b60015481565b33600260003373ffffffffffffffffffffffffffffffffffffffff1673ffffffffffffffffffffffffffffffffffffffff16815260200190815260200160002060000160006101000a81548173ffffffffffffffffffffffffffffffffffffffff021916908373ffffffffffffffffffffffffffffffffffffffff160217905550565b60008160018190555060009050919050565b60008054906101000a900473ffffffffffffffffffffffffffffffffffffffff1681565b600060028111156102af576102ae610f65565b5b8160028111156102c2576102c1610f65565b5b14806102f25750600160028111156102dd576102dc610f65565b5b8160028111156102f0576102ef610f65565b5b145b80610320575060028081111561030b5761030a610f65565b5b81600281111561031e5761031d610f65565b5b145b61035f576040517f08c379a000000000000000000000000000000000000000000000000000000000815260040161035690611225565b60405180910390fd5b6000606561036b610e5e565b6103759190611274565b9050600260003373ffffffffffffffffffffffffffffffffffffffff1673ffffffffffffffffffffffffffffffffffffffff1681526020019081526020016000206001018190806001815401808255809150506001900390600052602060002090602091828204019190069091909190916101000a81548160ff021916908360ff160217905550600260003373ffffffffffffffffffffffffffffffffffffffff1673ffffffffffffffffffffffffffffffffffffffff1681526020019081526020016000206002018290806001815401808255809150506001900390600052602060002090602091828204019190069091909190916101000a81548160ff0219169083600281111561048b5761048a610f65565b5b02179055507fe9292d8d1e39a1684e5c8f41f67409c6f88e062828e3cf5f732c3136b04b4e53600260003373ffffffffffffffffffffffffffffffffffffffff1673ffffffffffffffffffffffffffffffffffffffff16815260200190815260200160002060000160009054906101000a900473ffffffffffffffffffffffffffffffffffffffff168284346040516105279493929190611304565b60405180910390a16000600281111561054357610542610f65565b5b82600281111561055657610555610f65565b5b0361074e5760328111156106b357600260003373ffffffffffffffffffffffffffffffffffffffff1673ffffffffffffffffffffffffffffffffffffffff16815260200190815260200160002060000160009054906101000a900473ffffffffffffffffffffffffffffffffffffffff1673ffffffffffffffffffffffffffffffffffffffff166108fc6002346105ed9190611378565b9081150290604051600060405180830381858888f19350505050158015610618573d6000803e3d6000fd5b50600260003373ffffffffffffffffffffffffffffffffffffffff1673ffffffffffffffffffffffffffffffffffffffff168152602001908152602001600020600301600290806001815401808255809150506001900390600052602060002090602091828204019190069091909190916101000a81548160ff021916908360038111156106a9576106a8610f65565b5b0217905550610749565b600260003373ffffffffffffffffffffffffffffffffffffffff1673ffffffffffffffffffffffffffffffffffffffff168152602001908152602001600020600301600390806001815401808255809150506001900390600052602060002090602091828204019190069091909190916101000a81548160ff0219169083600381111561074357610742610f65565b5b02179055505b610b94565b6001600281111561076257610761610f65565b5b82600281111561077557610774610f65565b5b0361096d5760318110156108d257600260003373ffffffffffffffffffffffffffffffffffffffff1673ffffffffffffffffffffffffffffffffffffffff16815260200190815260200160002060000160009054906101000a900473ffffffffffffffffffffffffffffffffffffffff1673ffffffffffffffffffffffffffffffffffffffff166108fc60023461080c9190611378565b9081150290604051600060405180830381858888f19350505050158015610837573d6000803e3d6000fd5b50600260003373ffffffffffffffffffffffffffffffffffffffff1673ffffffffffffffffffffffffffffffffffffffff168152602001908152602001600020600301600290806001815401808255809150506001900390600052602060002090602091828204019190069091909190916101000a81548160ff021916908360038111156108c8576108c7610f65565b5b0217905550610968565b600260003373ffffffffffffffffffffffffffffffffffffffff1673ffffffffffffffffffffffffffffffffffffffff168152602001908152602001600020600301600390806001815401808255809150506001900390600052602060002090602091828204019190069091909190916101000a81548160ff0219169083600381111561096257610961610f65565b5b02179055505b610b93565b6002808111156109805761097f610f65565b5b82600281111561099357610992610f65565b5b03610b925760318114806109a75750603281145b15610afb57600260003373ffffffffffffffffffffffffffffffffffffffff1673ffffffffffffffffffffffffffffffffffffffff16815260200190815260200160002060000160009054906101000a900473ffffffffffffffffffffffffffffffffffffffff1673ffffffffffffffffffffffffffffffffffffffff166108fc600a34610a359190611378565b9081150290604051600060405180830381858888f19350505050158015610a60573d6000803e3d6000fd5b50600260003373ffffffffffffffffffffffffffffffffffffffff1673ffffffffffffffffffffffffffffffffffffffff168152602001908152602001600020600301600290806001815401808255809150506001900390600052602060002090602091828204019190069091909190916101000a81548160ff02191690836003811115610af157610af0610f65565b5b0217905550610b91565b600260003373ffffffffffffffffffffffffffffffffffffffff1673ffffffffffffffffffffffffffffffffffffffff168152602001908152602001600020600301600390806001815401808255809150506001900390600052602060002090602091828204019190069091909190916101000a81548160ff02191690836003811115610b8b57610b8a610f65565b5b02179055505b5b5b5b5050565b600080600080600260003373ffffffffffffffffffffffffffffffffffffffff1673ffffffffffffffffffffffffffffffffffffffff16815260200190815260200160002060000160009054906101000a900473ffffffffffffffffffffffffffffffffffffffff16600260003373ffffffffffffffffffffffffffffffffffffffff1673ffffffffffffffffffffffffffffffffffffffff1681526020019081526020016000206001016001600260003373ffffffffffffffffffffffffffffffffffffffff1673ffffffffffffffffffffffffffffffffffffffff16815260200190815260200160002060010180549050610c9591906113d2565b81548110610ca657610ca5611406565b5b90600052602060002090602091828204019190069054906101000a900460ff16600260003373ffffffffffffffffffffffffffffffffffffffff1673ffffffffffffffffffffffffffffffffffffffff1681526020019081526020016000206002016001600260003373ffffffffffffffffffffffffffffffffffffffff1673ffffffffffffffffffffffffffffffffffffffff16815260200190815260200160002060020180549050610d5a91906113d2565b81548110610d6b57610d6a611406565b5b90600052602060002090602091828204019190069054906101000a900460ff16600260003373ffffffffffffffffffffffffffffffffffffffff1673ffffffffffffffffffffffffffffffffffffffff1681526020019081526020016000206003016001600260003373ffffffffffffffffffffffffffffffffffffffff1673ffffffffffffffffffffffffffffffffffffffff16815260200190815260200160002060030180549050610e1f91906113d2565b81548110610e3057610e2f611406565b5b90600052602060002090602091828204019190069054906101000a900460ff16935093509350935090919293565b6000600154441842604051602001610e77929190611456565b6040516020818303038152906040528051906020012060001c905090565b60026020528060005260406000206000915090508060000160009054906101000a900473ffffffffffffffffffffffffffffffffffffffff16905081565b6000819050919050565b610ee681610ed3565b82525050565b6000602082019050610f016000830184610edd565b92915050565b600080fd5b610f1581610ed3565b8114610f2057600080fd5b50565b600081359050610f3281610f0c565b92915050565b600060208284031215610f4e57610f4d610f07565b5b6000610f5c84828501610f23565b91505092915050565b7f4e487b7100000000000000000000000000000000000000000000000000000000600052602160045260246000fd5b60048110610fa557610fa4610f65565b5b50565b6000819050610fb682610f94565b919050565b6000610fc682610fa8565b9050919050565b610fd681610fbb565b82525050565b6000602082019050610ff16000830184610fcd565b92915050565b600073ffffffffffffffffffffffffffffffffffffffff82169050919050565b600061102282610ff7565b9050919050565b61103281611017565b82525050565b600060208201905061104d6000830184611029565b92915050565b6003811061106057600080fd5b50565b60008135905061107281611053565b92915050565b60006020828403121561108e5761108d610f07565b5b600061109c84828501611063565b91505092915050565b60006110b082610ff7565b9050919050565b6110c0816110a5565b82525050565b600060ff82169050919050565b6110dc816110c6565b82525050565b600381106110f3576110f2610f65565b5b50565b6000819050611104826110e2565b919050565b6000611114826110f6565b9050919050565b61112481611109565b82525050565b600060808201905061113f60008301876110b7565b61114c60208301866110d3565b611159604083018561111b565b6111666060830184610fcd565b95945050505050565b611178816110a5565b811461118357600080fd5b50565b6000813590506111958161116f565b92915050565b6000602082840312156111b1576111b0610f07565b5b60006111bf84828501611186565b91505092915050565b600082825260208201905092915050565b7f57726f6e672076616c7565000000000000000000000000000000000000000000600082015250565b600061120f600b836111c8565b915061121a826111d9565b602082019050919050565b6000602082019050818103600083015261123e81611202565b9050919050565b7f4e487b7100000000000000000000000000000000000000000000000000000000600052601260045260246000fd5b600061127f82610ed3565b915061128a83610ed3565b92508261129a57611299611245565b5b828206905092915050565b6000819050919050565b60006112ca6112c56112c084610ff7565b6112a5565b610ff7565b9050919050565b60006112dc826112af565b9050919050565b60006112ee826112d1565b9050919050565b6112fe816112e3565b82525050565b600060808201905061131960008301876112f5565b6113266020830186610edd565b611333604083018561111b565b6113406060830184610edd565b95945050505050565b7f4e487b7100000000000000000000000000000000000000000000000000000000600052601160045260246000fd5b600061138382610ed3565b915061138e83610ed3565b9250817fffffffffffffffffffffffffffffffffffffffffffffffffffffffffffffffff04831182151516156113c7576113c6611349565b5b828202905092915050565b60006113dd82610ed3565b91506113e883610ed3565b9250828210156113fb576113fa611349565b5b828203905092915050565b7f4e487b7100000000000000000000000000000000000000000000000000000000600052603260045260246000fd5b6000819050919050565b61145061144b82610ed3565b611435565b82525050565b6000611462828561143f565b602082019150611472828461143f565b602082019150819050939250505056fea2646970667358221220f5019d6ba94f282f8f541762b20994ef8d3d91d966845b2a287d834f487de01164736f6c634300080f0033",
  "immutableReferences": {},
  "source": "pragma solidity ^0.8.0;\n\ncontract Dice{\n    address payable public owner;\n    uint public cryptoSalt; \n    enum result {\n        OK, \n        ERROR, \n        WIN, \n        LOSE\n    }\n    enum direction {\n        UP, \n        DOWN, \n        ZERO}\n    struct Player{\n        address payable playerAddress;\n        uint8[] rolls;\n        direction[] directions;\n        result[] results;\n    }\n\n    mapping (address => Player) public players;\n    \n    constructor(){\n        owner = payable(msg.sender);\n        cryptoSalt = 0xAAAA; // Default salt\n    }\n\n    event playLog(address player, uint number, direction _direction, uint value);\n    //Everyone can change salt value\n    function setSalt(uint _salt) public returns (result){\n        cryptoSalt = _salt;\n        return result.OK;\n    }\n    //Generate random number\n    function getRandomNumber() view public returns (uint) {\n        return uint(keccak256(abi.encodePacked((block.difficulty ^ cryptoSalt), block.timestamp)));\n    }\n    function initialisation() public {\n        players[msg.sender].playerAddress = payable(msg.sender);\n    }\n    function getPlayerInfo() public view returns (address, uint8, direction, result){\n        return (players[msg.sender].playerAddress, \n                players[msg.sender].rolls[players[msg.sender].rolls.length - 1],\n                players[msg.sender].directions[players[msg.sender].directions.length - 1],\n                players[msg.sender].results[players[msg.sender].results.length - 1]) ;\n    }\n\n    function playDice(direction _direction) public payable {\n        require(_direction == direction.UP || _direction == direction.DOWN || _direction == direction.ZERO, 'Wrong value');\n        //require(players[msg.sender].playerAddress == 0, 'You are not init');\n        uint randomNumber = getRandomNumber() % 101;\n        //Player memory _player;\n        players[msg.sender].rolls.push(uint8(randomNumber));\n        players[msg.sender].directions.push(_direction);\n        //player.playerAddress = payable(msg.sender);\n         emit playLog(players[msg.sender].playerAddress, randomNumber, _direction, msg.value);\n        if(_direction == direction.UP){\n            if(randomNumber > 50){\n                players[msg.sender].playerAddress.transfer(msg.value * 2);\n                players[msg.sender].results.push(result.WIN);\n            }else{               \n                players[msg.sender].results.push(result.LOSE);\n            }\n        }else if(_direction == direction.DOWN){\n            if(randomNumber < 49){\n                players[msg.sender].playerAddress.transfer(msg.value * 2);\n                players[msg.sender].results.push(result.WIN);\n            }else{\n                players[msg.sender].results.push(result.LOSE);\n            }\n        }else if(_direction == direction.ZERO){\n            if(randomNumber == 49 || randomNumber == 50 ){\n                players[msg.sender].playerAddress.transfer(msg.value * 10);\n                players[msg.sender].results.push(result.WIN);\n            }else{\n                players[msg.sender].results.push(result.LOSE);\n            }\n        }//else {\n    //    players[msg.sender].results.push(result.ERROR);\n       // }\n\n        \n\n\n    }\n}\n",
  "sourcePath": "/home/artem/truffleProjects/proj2/contracts/Dice.sol",
  "compiler": {
    "name": "solc",
    "version": "0.8.15+commit.e14f2714.Emscripten.clang"
  },
  "schemaVersion": "3.4.7",
  "updatedAt": "2022-07-16T20:04:13.747Z",
  "networkType": "ethereum",
  "devdoc": {
    "kind": "dev",
    "methods": {},
    "version": 1
  },
  "userdoc": {
    "kind": "user",
    "methods": {},
    "version": 1
  }
}