{
  "contractName": "DiceCoin",
  "abi": [
    {
      "inputs": [],
      "stateMutability": "nonpayable",
      "type": "constructor"
    },
    {
      "anonymous": false,
      "inputs": [
        {
          "indexed": true,
          "internalType": "address",
          "name": "owner",
          "type": "address"
        },
        {
          "indexed": true,
          "internalType": "address",
          "name": "spender",
          "type": "address"
        },
        {
          "indexed": false,
          "internalType": "uint256",
          "name": "value",
          "type": "uint256"
        }
      ],
      "name": "Approval",
      "type": "event"
    },
    {
      "anonymous": false,
      "inputs": [
        {
          "indexed": true,
          "internalType": "address",
          "name": "previousOwner",
          "type": "address"
        },
        {
          "indexed": true,
          "internalType": "address",
          "name": "newOwner",
          "type": "address"
        }
      ],
      "name": "OwnershipTransferred",
      "type": "event"
    },
    {
      "anonymous": false,
      "inputs": [
        {
          "indexed": true,
          "internalType": "address",
          "name": "from",
          "type": "address"
        },
        {
          "indexed": true,
          "internalType": "address",
          "name": "to",
          "type": "address"
        },
        {
          "indexed": false,
          "internalType": "uint256",
          "name": "value",
          "type": "uint256"
        }
      ],
      "name": "Transfer",
      "type": "event"
    },
    {
      "inputs": [
        {
          "internalType": "address",
          "name": "owner",
          "type": "address"
        },
        {
          "internalType": "address",
          "name": "spender",
          "type": "address"
        }
      ],
      "name": "allowance",
      "outputs": [
        {
          "internalType": "uint256",
          "name": "",
          "type": "uint256"
        }
      ],
      "stateMutability": "view",
      "type": "function"
    },
    {
      "inputs": [
        {
          "internalType": "address",
          "name": "spender",
          "type": "address"
        },
        {
          "internalType": "uint256",
          "name": "amount",
          "type": "uint256"
        }
      ],
      "name": "approve",
      "outputs": [
        {
          "internalType": "bool",
          "name": "",
          "type": "bool"
        }
      ],
      "stateMutability": "nonpayable",
      "type": "function"
    },
    {
      "inputs": [
        {
          "internalType": "address",
          "name": "account",
          "type": "address"
        }
      ],
      "name": "balanceOf",
      "outputs": [
        {
          "internalType": "uint256",
          "name": "",
          "type": "uint256"
        }
      ],
      "stateMutability": "view",
      "type": "function"
    },
    {
      "inputs": [
        {
          "internalType": "uint256",
          "name": "amount",
          "type": "uint256"
        }
      ],
      "name": "burn",
      "outputs": [],
      "stateMutability": "nonpayable",
      "type": "function"
    },
    {
      "inputs": [
        {
          "internalType": "address",
          "name": "account",
          "type": "address"
        },
        {
          "internalType": "uint256",
          "name": "amount",
          "type": "uint256"
        }
      ],
      "name": "burnFrom",
      "outputs": [],
      "stateMutability": "nonpayable",
      "type": "function"
    },
    {
      "inputs": [],
      "name": "decimals",
      "outputs": [
        {
          "internalType": "uint8",
          "name": "",
          "type": "uint8"
        }
      ],
      "stateMutability": "view",
      "type": "function"
    },
    {
      "inputs": [
        {
          "internalType": "address",
          "name": "spender",
          "type": "address"
        },
        {
          "internalType": "uint256",
          "name": "subtractedValue",
          "type": "uint256"
        }
      ],
      "name": "decreaseAllowance",
      "outputs": [
        {
          "internalType": "bool",
          "name": "",
          "type": "bool"
        }
      ],
      "stateMutability": "nonpayable",
      "type": "function"
    },
    {
      "inputs": [
        {
          "internalType": "address",
          "name": "spender",
          "type": "address"
        },
        {
          "internalType": "uint256",
          "name": "addedValue",
          "type": "uint256"
        }
      ],
      "name": "increaseAllowance",
      "outputs": [
        {
          "internalType": "bool",
          "name": "",
          "type": "bool"
        }
      ],
      "stateMutability": "nonpayable",
      "type": "function"
    },
    {
      "inputs": [],
      "name": "name",
      "outputs": [
        {
          "internalType": "string",
          "name": "",
          "type": "string"
        }
      ],
      "stateMutability": "view",
      "type": "function"
    },
    {
      "inputs": [],
      "name": "owner",
      "outputs": [
        {
          "internalType": "address",
          "name": "",
          "type": "address"
        }
      ],
      "stateMutability": "view",
      "type": "function"
    },
    {
      "inputs": [],
      "name": "renounceOwnership",
      "outputs": [],
      "stateMutability": "nonpayable",
      "type": "function"
    },
    {
      "inputs": [],
      "name": "symbol",
      "outputs": [
        {
          "internalType": "string",
          "name": "",
          "type": "string"
        }
      ],
      "stateMutability": "view",
      "type": "function"
    },
    {
      "inputs": [],
      "name": "totalSupply",
      "outputs": [
        {
          "internalType": "uint256",
          "name": "",
          "type": "uint256"
        }
      ],
      "stateMutability": "view",
      "type": "function"
    },
    {
      "inputs": [
        {
          "internalType": "address",
          "name": "to",
          "type": "address"
        },
        {
          "internalType": "uint256",
          "name": "amount",
          "type": "uint256"
        }
      ],
      "name": "transfer",
      "outputs": [
        {
          "internalType": "bool",
          "name": "",
          "type": "bool"
        }
      ],
      "stateMutability": "nonpayable",
      "type": "function"
    },
    {
      "inputs": [
        {
          "internalType": "address",
          "name": "from",
          "type": "address"
        },
        {
          "internalType": "address",
          "name": "to",
          "type": "address"
        },
        {
          "internalType": "uint256",
          "name": "amount",
          "type": "uint256"
        }
      ],
      "name": "transferFrom",
      "outputs": [
        {
          "internalType": "bool",
          "name": "",
          "type": "bool"
        }
      ],
      "stateMutability": "nonpayable",
      "type": "function"
    },
    {
      "inputs": [
        {
          "internalType": "address",
          "name": "newOwner",
          "type": "address"
        }
      ],
      "name": "transferOwnership",
      "outputs": [],
      "stateMutability": "nonpayable",
      "type": "function"
    }
  ],
  "bytecode": "0x60806040523480156200001157600080fd5b506040518060400160405280600881526020017f44496365436f696e0000000000000000000000000000000000000000000000008152506040518060400160405280600381526020017f444345000000000000000000000000000000000000000000000000000000000081525081600390816200008f9190620005dd565b508060049081620000a19190620005dd565b505050620000c4620000b86200010a60201b60201c565b6200011260201b60201c565b6200010433620000d9620001d860201b60201c565b600a620000e7919062000854565b633b9aca00620000f89190620008a5565b620001e160201b60201c565b62000a14565b600033905090565b6000600560009054906101000a900473ffffffffffffffffffffffffffffffffffffffff16905081600560006101000a81548173ffffffffffffffffffffffffffffffffffffffff021916908373ffffffffffffffffffffffffffffffffffffffff1602179055508173ffffffffffffffffffffffffffffffffffffffff168173ffffffffffffffffffffffffffffffffffffffff167f8be0079c531659141344cd1fd0a4f28419497f9722a3daafe3b4186f6b6457e060405160405180910390a35050565b60006012905090565b600073ffffffffffffffffffffffffffffffffffffffff168273ffffffffffffffffffffffffffffffffffffffff160362000253576040517f08c379a00000000000000000000000000000000000000000000000000000000081526004016200024a9062000967565b60405180910390fd5b62000267600083836200035960201b60201c565b80600260008282546200027b919062000989565b92505081905550806000808473ffffffffffffffffffffffffffffffffffffffff1673ffffffffffffffffffffffffffffffffffffffff1681526020019081526020016000206000828254620002d2919062000989565b925050819055508173ffffffffffffffffffffffffffffffffffffffff16600073ffffffffffffffffffffffffffffffffffffffff167fddf252ad1be2c89b69c2b068fc378daa952ba7f163c4a11628f55a4df523b3ef83604051620003399190620009f7565b60405180910390a362000355600083836200035e60201b60201c565b5050565b505050565b505050565b600081519050919050565b7f4e487b7100000000000000000000000000000000000000000000000000000000600052604160045260246000fd5b7f4e487b7100000000000000000000000000000000000000000000000000000000600052602260045260246000fd5b60006002820490506001821680620003e557607f821691505b602082108103620003fb57620003fa6200039d565b5b50919050565b60008190508160005260206000209050919050565b60006020601f8301049050919050565b600082821b905092915050565b600060088302620004657fffffffffffffffffffffffffffffffffffffffffffffffffffffffffffffffff8262000426565b62000471868362000426565b95508019841693508086168417925050509392505050565b6000819050919050565b6000819050919050565b6000620004be620004b8620004b28462000489565b62000493565b62000489565b9050919050565b6000819050919050565b620004da836200049d565b620004f2620004e982620004c5565b84845462000433565b825550505050565b600090565b62000509620004fa565b62000516818484620004cf565b505050565b5b818110156200053e5762000532600082620004ff565b6001810190506200051c565b5050565b601f8211156200058d57620005578162000401565b620005628462000416565b8101602085101562000572578190505b6200058a620005818562000416565b8301826200051b565b50505b505050565b600082821c905092915050565b6000620005b26000198460080262000592565b1980831691505092915050565b6000620005cd83836200059f565b9150826002028217905092915050565b620005e88262000363565b67ffffffffffffffff8111156200060457620006036200036e565b5b620006108254620003cc565b6200061d82828562000542565b600060209050601f83116001811462000655576000841562000640578287015190505b6200064c8582620005bf565b865550620006bc565b601f198416620006658662000401565b60005b828110156200068f5784890151825560018201915060208501945060208101905062000668565b86831015620006af5784890151620006ab601f8916826200059f565b8355505b6001600288020188555050505b505050505050565b7f4e487b7100000000000000000000000000000000000000000000000000000000600052601160045260246000fd5b60008160011c9050919050565b6000808291508390505b600185111562000752578086048111156200072a5762000729620006c4565b5b60018516156200073a5780820291505b80810290506200074a85620006f3565b94506200070a565b94509492505050565b6000826200076d576001905062000840565b816200077d576000905062000840565b8160018114620007965760028114620007a157620007d7565b600191505062000840565b60ff841115620007b657620007b5620006c4565b5b8360020a915084821115620007d057620007cf620006c4565b5b5062000840565b5060208310610133831016604e8410600b8410161715620008115782820a9050838111156200080b576200080a620006c4565b5b62000840565b62000820848484600162000700565b925090508184048111156200083a5762000839620006c4565b5b81810290505b9392505050565b600060ff82169050919050565b6000620008618262000489565b91506200086e8362000847565b92506200089d7fffffffffffffffffffffffffffffffffffffffffffffffffffffffffffffffff84846200075b565b905092915050565b6000620008b28262000489565b9150620008bf8362000489565b9250817fffffffffffffffffffffffffffffffffffffffffffffffffffffffffffffffff0483118215151615620008fb57620008fa620006c4565b5b828202905092915050565b600082825260208201905092915050565b7f45524332303a206d696e7420746f20746865207a65726f206164647265737300600082015250565b60006200094f601f8362000906565b91506200095c8262000917565b602082019050919050565b60006020820190508181036000830152620009828162000940565b9050919050565b6000620009968262000489565b9150620009a38362000489565b9250827fffffffffffffffffffffffffffffffffffffffffffffffffffffffffffffffff03821115620009db57620009da620006c4565b5b828201905092915050565b620009f18162000489565b82525050565b600060208201905062000a0e6000830184620009e6565b92915050565b6119f28062000a246000396000f3fe608060405234801561001057600080fd5b50600436106101005760003560e01c8063715018a611610097578063a457c2d711610066578063a457c2d71461029d578063a9059cbb146102cd578063dd62ed3e146102fd578063f2fde38b1461032d57610100565b8063715018a61461023b57806379cc6790146102455780638da5cb5b1461026157806395d89b411461027f57610100565b8063313ce567116100d3578063313ce567146101a157806339509351146101bf57806342966c68146101ef57806370a082311461020b57610100565b806306fdde0314610105578063095ea7b31461012357806318160ddd1461015357806323b872dd14610171575b600080fd5b61010d610349565b60405161011a9190611000565b60405180910390f35b61013d600480360381019061013891906110bb565b6103db565b60405161014a9190611116565b60405180910390f35b61015b6103fe565b6040516101689190611140565b60405180910390f35b61018b6004803603810190610186919061115b565b610408565b6040516101989190611116565b60405180910390f35b6101a9610437565b6040516101b691906111ca565b60405180910390f35b6101d960048036038101906101d491906110bb565b610440565b6040516101e69190611116565b60405180910390f35b610209600480360381019061020491906111e5565b610477565b005b61022560048036038101906102209190611212565b61048b565b6040516102329190611140565b60405180910390f35b6102436104d3565b005b61025f600480360381019061025a91906110bb565b6104e7565b005b610269610507565b604051610276919061124e565b60405180910390f35b610287610531565b6040516102949190611000565b60405180910390f35b6102b760048036038101906102b291906110bb565b6105c3565b6040516102c49190611116565b60405180910390f35b6102e760048036038101906102e291906110bb565b61063a565b6040516102f49190611116565b60405180910390f35b61031760048036038101906103129190611269565b61065d565b6040516103249190611140565b60405180910390f35b61034760048036038101906103429190611212565b6106e4565b005b606060038054610358906112d8565b80601f0160208091040260200160405190810160405280929190818152602001828054610384906112d8565b80156103d15780601f106103a6576101008083540402835291602001916103d1565b820191906000526020600020905b8154815290600101906020018083116103b457829003601f168201915b5050505050905090565b6000806103e6610767565b90506103f381858561076f565b600191505092915050565b6000600254905090565b600080610413610767565b9050610420858285610938565b61042b8585856109c4565b60019150509392505050565b60006012905090565b60008061044b610767565b905061046c81858561045d858961065d565b6104679190611338565b61076f565b600191505092915050565b610488610482610767565b82610c43565b50565b60008060008373ffffffffffffffffffffffffffffffffffffffff1673ffffffffffffffffffffffffffffffffffffffff168152602001908152602001600020549050919050565b6104db610e19565b6104e56000610e97565b565b6104f9826104f3610767565b83610938565b6105038282610c43565b5050565b6000600560009054906101000a900473ffffffffffffffffffffffffffffffffffffffff16905090565b606060048054610540906112d8565b80601f016020809104026020016040519081016040528092919081815260200182805461056c906112d8565b80156105b95780601f1061058e576101008083540402835291602001916105b9565b820191906000526020600020905b81548152906001019060200180831161059c57829003601f168201915b5050505050905090565b6000806105ce610767565b905060006105dc828661065d565b905083811015610621576040517f08c379a000000000000000000000000000000000000000000000000000000000815260040161061890611400565b60405180910390fd5b61062e828686840361076f565b60019250505092915050565b600080610645610767565b90506106528185856109c4565b600191505092915050565b6000600160008473ffffffffffffffffffffffffffffffffffffffff1673ffffffffffffffffffffffffffffffffffffffff16815260200190815260200160002060008373ffffffffffffffffffffffffffffffffffffffff1673ffffffffffffffffffffffffffffffffffffffff16815260200190815260200160002054905092915050565b6106ec610e19565b600073ffffffffffffffffffffffffffffffffffffffff168173ffffffffffffffffffffffffffffffffffffffff160361075b576040517f08c379a000000000000000000000000000000000000000000000000000000000815260040161075290611492565b60405180910390fd5b61076481610e97565b50565b600033905090565b600073ffffffffffffffffffffffffffffffffffffffff168373ffffffffffffffffffffffffffffffffffffffff16036107de576040517f08c379a00000000000000000000000000000000000000000000000000000000081526004016107d590611524565b60405180910390fd5b600073ffffffffffffffffffffffffffffffffffffffff168273ffffffffffffffffffffffffffffffffffffffff160361084d576040517f08c379a0000000000000000000000000000000000000000000000000000000008152600401610844906115b6565b60405180910390fd5b80600160008573ffffffffffffffffffffffffffffffffffffffff1673ffffffffffffffffffffffffffffffffffffffff16815260200190815260200160002060008473ffffffffffffffffffffffffffffffffffffffff1673ffffffffffffffffffffffffffffffffffffffff168152602001908152602001600020819055508173ffffffffffffffffffffffffffffffffffffffff168373ffffffffffffffffffffffffffffffffffffffff167f8c5be1e5ebec7d5bd14f71427d1e84f3dd0314c0f7b2291e5b200ac8c7c3b9258360405161092b9190611140565b60405180910390a3505050565b6000610944848461065d565b90507fffffffffffffffffffffffffffffffffffffffffffffffffffffffffffffffff81146109be57818110156109b0576040517f08c379a00000000000000000000000000000000000000000000000000000000081526004016109a790611622565b60405180910390fd5b6109bd848484840361076f565b5b50505050565b600073ffffffffffffffffffffffffffffffffffffffff168373ffffffffffffffffffffffffffffffffffffffff1603610a33576040517f08c379a0000000000000000000000000000000000000000000000000000000008152600401610a2a906116b4565b60405180910390fd5b600073ffffffffffffffffffffffffffffffffffffffff168273ffffffffffffffffffffffffffffffffffffffff1603610aa2576040517f08c379a0000000000000000000000000000000000000000000000000000000008152600401610a9990611746565b60405180910390fd5b610aad838383610f5d565b60008060008573ffffffffffffffffffffffffffffffffffffffff1673ffffffffffffffffffffffffffffffffffffffff16815260200190815260200160002054905081811015610b33576040517f08c379a0000000000000000000000000000000000000000000000000000000008152600401610b2a906117d8565b60405180910390fd5b8181036000808673ffffffffffffffffffffffffffffffffffffffff1673ffffffffffffffffffffffffffffffffffffffff16815260200190815260200160002081905550816000808573ffffffffffffffffffffffffffffffffffffffff1673ffffffffffffffffffffffffffffffffffffffff1681526020019081526020016000206000828254610bc69190611338565b925050819055508273ffffffffffffffffffffffffffffffffffffffff168473ffffffffffffffffffffffffffffffffffffffff167fddf252ad1be2c89b69c2b068fc378daa952ba7f163c4a11628f55a4df523b3ef84604051610c2a9190611140565b60405180910390a3610c3d848484610f62565b50505050565b600073ffffffffffffffffffffffffffffffffffffffff168273ffffffffffffffffffffffffffffffffffffffff1603610cb2576040517f08c379a0000000000000000000000000000000000000000000000000000000008152600401610ca99061186a565b60405180910390fd5b610cbe82600083610f5d565b60008060008473ffffffffffffffffffffffffffffffffffffffff1673ffffffffffffffffffffffffffffffffffffffff16815260200190815260200160002054905081811015610d44576040517f08c379a0000000000000000000000000000000000000000000000000000000008152600401610d3b906118fc565b60405180910390fd5b8181036000808573ffffffffffffffffffffffffffffffffffffffff1673ffffffffffffffffffffffffffffffffffffffff168152602001908152602001600020819055508160026000828254610d9b919061191c565b92505081905550600073ffffffffffffffffffffffffffffffffffffffff168373ffffffffffffffffffffffffffffffffffffffff167fddf252ad1be2c89b69c2b068fc378daa952ba7f163c4a11628f55a4df523b3ef84604051610e009190611140565b60405180910390a3610e1483600084610f62565b505050565b610e21610767565b73ffffffffffffffffffffffffffffffffffffffff16610e3f610507565b73ffffffffffffffffffffffffffffffffffffffff1614610e95576040517f08c379a0000000000000000000000000000000000000000000000000000000008152600401610e8c9061199c565b60405180910390fd5b565b6000600560009054906101000a900473ffffffffffffffffffffffffffffffffffffffff16905081600560006101000a81548173ffffffffffffffffffffffffffffffffffffffff021916908373ffffffffffffffffffffffffffffffffffffffff1602179055508173ffffffffffffffffffffffffffffffffffffffff168173ffffffffffffffffffffffffffffffffffffffff167f8be0079c531659141344cd1fd0a4f28419497f9722a3daafe3b4186f6b6457e060405160405180910390a35050565b505050565b505050565b600081519050919050565b600082825260208201905092915050565b60005b83811015610fa1578082015181840152602081019050610f86565b83811115610fb0576000848401525b50505050565b6000601f19601f8301169050919050565b6000610fd282610f67565b610fdc8185610f72565b9350610fec818560208601610f83565b610ff581610fb6565b840191505092915050565b6000602082019050818103600083015261101a8184610fc7565b905092915050565b600080fd5b600073ffffffffffffffffffffffffffffffffffffffff82169050919050565b600061105282611027565b9050919050565b61106281611047565b811461106d57600080fd5b50565b60008135905061107f81611059565b92915050565b6000819050919050565b61109881611085565b81146110a357600080fd5b50565b6000813590506110b58161108f565b92915050565b600080604083850312156110d2576110d1611022565b5b60006110e085828601611070565b92505060206110f1858286016110a6565b9150509250929050565b60008115159050919050565b611110816110fb565b82525050565b600060208201905061112b6000830184611107565b92915050565b61113a81611085565b82525050565b60006020820190506111556000830184611131565b92915050565b60008060006060848603121561117457611173611022565b5b600061118286828701611070565b935050602061119386828701611070565b92505060406111a4868287016110a6565b9150509250925092565b600060ff82169050919050565b6111c4816111ae565b82525050565b60006020820190506111df60008301846111bb565b92915050565b6000602082840312156111fb576111fa611022565b5b6000611209848285016110a6565b91505092915050565b60006020828403121561122857611227611022565b5b600061123684828501611070565b91505092915050565b61124881611047565b82525050565b6000602082019050611263600083018461123f565b92915050565b600080604083850312156112805761127f611022565b5b600061128e85828601611070565b925050602061129f85828601611070565b9150509250929050565b7f4e487b7100000000000000000000000000000000000000000000000000000000600052602260045260246000fd5b600060028204905060018216806112f057607f821691505b602082108103611303576113026112a9565b5b50919050565b7f4e487b7100000000000000000000000000000000000000000000000000000000600052601160045260246000fd5b600061134382611085565b915061134e83611085565b9250827fffffffffffffffffffffffffffffffffffffffffffffffffffffffffffffffff0382111561138357611382611309565b5b828201905092915050565b7f45524332303a2064656372656173656420616c6c6f77616e63652062656c6f7760008201527f207a65726f000000000000000000000000000000000000000000000000000000602082015250565b60006113ea602583610f72565b91506113f58261138e565b604082019050919050565b60006020820190508181036000830152611419816113dd565b9050919050565b7f4f776e61626c653a206e6577206f776e657220697320746865207a65726f206160008201527f6464726573730000000000000000000000000000000000000000000000000000602082015250565b600061147c602683610f72565b915061148782611420565b604082019050919050565b600060208201905081810360008301526114ab8161146f565b9050919050565b7f45524332303a20617070726f76652066726f6d20746865207a65726f2061646460008201527f7265737300000000000000000000000000000000000000000000000000000000602082015250565b600061150e602483610f72565b9150611519826114b2565b604082019050919050565b6000602082019050818103600083015261153d81611501565b9050919050565b7f45524332303a20617070726f766520746f20746865207a65726f20616464726560008201527f7373000000000000000000000000000000000000000000000000000000000000602082015250565b60006115a0602283610f72565b91506115ab82611544565b604082019050919050565b600060208201905081810360008301526115cf81611593565b9050919050565b7f45524332303a20696e73756666696369656e7420616c6c6f77616e6365000000600082015250565b600061160c601d83610f72565b9150611617826115d6565b602082019050919050565b6000602082019050818103600083015261163b816115ff565b9050919050565b7f45524332303a207472616e736665722066726f6d20746865207a65726f20616460008201527f6472657373000000000000000000000000000000000000000000000000000000602082015250565b600061169e602583610f72565b91506116a982611642565b604082019050919050565b600060208201905081810360008301526116cd81611691565b9050919050565b7f45524332303a207472616e7366657220746f20746865207a65726f206164647260008201527f6573730000000000000000000000000000000000000000000000000000000000602082015250565b6000611730602383610f72565b915061173b826116d4565b604082019050919050565b6000602082019050818103600083015261175f81611723565b9050919050565b7f45524332303a207472616e7366657220616d6f756e742065786365656473206260008201527f616c616e63650000000000000000000000000000000000000000000000000000602082015250565b60006117c2602683610f72565b91506117cd82611766565b604082019050919050565b600060208201905081810360008301526117f1816117b5565b9050919050565b7f45524332303a206275726e2066726f6d20746865207a65726f2061646472657360008201527f7300000000000000000000000000000000000000000000000000000000000000602082015250565b6000611854602183610f72565b915061185f826117f8565b604082019050919050565b6000602082019050818103600083015261188381611847565b9050919050565b7f45524332303a206275726e20616d6f756e7420657863656564732062616c616e60008201527f6365000000000000000000000000000000000000000000000000000000000000602082015250565b60006118e6602283610f72565b91506118f18261188a565b604082019050919050565b60006020820190508181036000830152611915816118d9565b9050919050565b600061192782611085565b915061193283611085565b92508282101561194557611944611309565b5b828203905092915050565b7f4f776e61626c653a2063616c6c6572206973206e6f7420746865206f776e6572600082015250565b6000611986602083610f72565b915061199182611950565b602082019050919050565b600060208201905081810360008301526119b581611979565b905091905056fea2646970667358221220e088bc817dbab6aa1431e3f2e094bb8640275eaa4ff2301c11e3a6f1479e710564736f6c634300080f0033",
  "immutableReferences": {},
  "source": "// SPDX-License-Identifier: MIT\npragma solidity ^0.8.4;\n\nimport \"@openzeppelin/contracts/token/ERC20/ERC20.sol\";\nimport \"@openzeppelin/contracts/token/ERC20/extensions/ERC20Burnable.sol\";\nimport \"@openzeppelin/contracts/access/Ownable.sol\";\n\ncontract DiceCoin is ERC20, ERC20Burnable, Ownable {\n    constructor() ERC20(\"DIceCoin\", \"DCE\") {\n        _mint(msg.sender, 1000000000 * 10 ** decimals());\n    }\n\n}\n\n",
  "sourcePath": "/home/artem/truffleProjects/proj2/contracts/DiceToken.sol",
  "compiler": {
    "name": "solc",
    "version": "0.8.15+commit.e14f2714.Emscripten.clang"
  },
  "schemaVersion": "3.4.7",
  "updatedAt": "2022-08-02T05:47:10.829Z",
  "devdoc": {
    "kind": "dev",
    "methods": {
      "allowance(address,address)": {
        "details": "See {IERC20-allowance}."
      },
      "approve(address,uint256)": {
        "details": "See {IERC20-approve}. NOTE: If `amount` is the maximum `uint256`, the allowance is not updated on `transferFrom`. This is semantically equivalent to an infinite approval. Requirements: - `spender` cannot be the zero address."
      },
      "balanceOf(address)": {
        "details": "See {IERC20-balanceOf}."
      },
      "burn(uint256)": {
        "details": "Destroys `amount` tokens from the caller. See {ERC20-_burn}."
      },
      "burnFrom(address,uint256)": {
        "details": "Destroys `amount` tokens from `account`, deducting from the caller's allowance. See {ERC20-_burn} and {ERC20-allowance}. Requirements: - the caller must have allowance for ``accounts``'s tokens of at least `amount`."
      },
      "decimals()": {
        "details": "Returns the number of decimals used to get its user representation. For example, if `decimals` equals `2`, a balance of `505` tokens should be displayed to a user as `5.05` (`505 / 10 ** 2`). Tokens usually opt for a value of 18, imitating the relationship between Ether and Wei. This is the value {ERC20} uses, unless this function is overridden; NOTE: This information is only used for _display_ purposes: it in no way affects any of the arithmetic of the contract, including {IERC20-balanceOf} and {IERC20-transfer}."
      },
      "decreaseAllowance(address,uint256)": {
        "details": "Atomically decreases the allowance granted to `spender` by the caller. This is an alternative to {approve} that can be used as a mitigation for problems described in {IERC20-approve}. Emits an {Approval} event indicating the updated allowance. Requirements: - `spender` cannot be the zero address. - `spender` must have allowance for the caller of at least `subtractedValue`."
      },
      "increaseAllowance(address,uint256)": {
        "details": "Atomically increases the allowance granted to `spender` by the caller. This is an alternative to {approve} that can be used as a mitigation for problems described in {IERC20-approve}. Emits an {Approval} event indicating the updated allowance. Requirements: - `spender` cannot be the zero address."
      },
      "name()": {
        "details": "Returns the name of the token."
      },
      "owner()": {
        "details": "Returns the address of the current owner."
      },
      "renounceOwnership()": {
        "details": "Leaves the contract without owner. It will not be possible to call `onlyOwner` functions anymore. Can only be called by the current owner. NOTE: Renouncing ownership will leave the contract without an owner, thereby removing any functionality that is only available to the owner."
      },
      "symbol()": {
        "details": "Returns the symbol of the token, usually a shorter version of the name."
      },
      "totalSupply()": {
        "details": "See {IERC20-totalSupply}."
      },
      "transfer(address,uint256)": {
        "details": "See {IERC20-transfer}. Requirements: - `to` cannot be the zero address. - the caller must have a balance of at least `amount`."
      },
      "transferFrom(address,address,uint256)": {
        "details": "See {IERC20-transferFrom}. Emits an {Approval} event indicating the updated allowance. This is not required by the EIP. See the note at the beginning of {ERC20}. NOTE: Does not update the allowance if the current allowance is the maximum `uint256`. Requirements: - `from` and `to` cannot be the zero address. - `from` must have a balance of at least `amount`. - the caller must have allowance for ``from``'s tokens of at least `amount`."
      },
      "transferOwnership(address)": {
        "details": "Transfers ownership of the contract to a new account (`newOwner`). Can only be called by the current owner."
      }
    },
    "version": 1
  },
  "userdoc": {
    "kind": "user",
    "methods": {},
    "version": 1
  }
}