{
  "contractName": "Dice",
  "abi": [
    {
      "inputs": [],
      "stateMutability": "nonpayable",
      "type": "constructor"
    },
    {
      "anonymous": false,
      "inputs": [
        {
          "indexed": true,
          "internalType": "address",
          "name": "owner",
          "type": "address"
        },
        {
          "indexed": true,
          "internalType": "address",
          "name": "spender",
          "type": "address"
        },
        {
          "indexed": false,
          "internalType": "uint256",
          "name": "value",
          "type": "uint256"
        }
      ],
      "name": "Approval",
      "type": "event"
    },
    {
      "anonymous": false,
      "inputs": [
        {
          "indexed": true,
          "internalType": "address",
          "name": "previousOwner",
          "type": "address"
        },
        {
          "indexed": true,
          "internalType": "address",
          "name": "newOwner",
          "type": "address"
        }
      ],
      "name": "OwnershipTransferred",
      "type": "event"
    },
    {
      "anonymous": false,
      "inputs": [
        {
          "indexed": true,
          "internalType": "address",
          "name": "from",
          "type": "address"
        },
        {
          "indexed": true,
          "internalType": "address",
          "name": "to",
          "type": "address"
        },
        {
          "indexed": false,
          "internalType": "uint256",
          "name": "value",
          "type": "uint256"
        }
      ],
      "name": "Transfer",
      "type": "event"
    },
    {
      "anonymous": false,
      "inputs": [
        {
          "indexed": false,
          "internalType": "address",
          "name": "player",
          "type": "address"
        },
        {
          "indexed": false,
          "internalType": "uint256",
          "name": "number",
          "type": "uint256"
        },
        {
          "indexed": false,
          "internalType": "enum Dice.direction",
          "name": "_direction",
          "type": "uint8"
        },
        {
          "indexed": false,
          "internalType": "uint256",
          "name": "value",
          "type": "uint256"
        },
        {
          "indexed": false,
          "internalType": "enum Dice.result",
          "name": "_result",
          "type": "uint8"
        }
      ],
      "name": "playLog",
      "type": "event"
    },
    {
      "inputs": [
        {
          "internalType": "address",
          "name": "owner",
          "type": "address"
        },
        {
          "internalType": "address",
          "name": "spender",
          "type": "address"
        }
      ],
      "name": "allowance",
      "outputs": [
        {
          "internalType": "uint256",
          "name": "",
          "type": "uint256"
        }
      ],
      "stateMutability": "view",
      "type": "function",
      "constant": true
    },
    {
      "inputs": [
        {
          "internalType": "address",
          "name": "spender",
          "type": "address"
        },
        {
          "internalType": "uint256",
          "name": "amount",
          "type": "uint256"
        }
      ],
      "name": "approve",
      "outputs": [
        {
          "internalType": "bool",
          "name": "",
          "type": "bool"
        }
      ],
      "stateMutability": "nonpayable",
      "type": "function"
    },
    {
      "inputs": [
        {
          "internalType": "address",
          "name": "account",
          "type": "address"
        }
      ],
      "name": "balanceOf",
      "outputs": [
        {
          "internalType": "uint256",
          "name": "",
          "type": "uint256"
        }
      ],
      "stateMutability": "view",
      "type": "function",
      "constant": true
    },
    {
      "inputs": [
        {
          "internalType": "uint256",
          "name": "amount",
          "type": "uint256"
        }
      ],
      "name": "burn",
      "outputs": [],
      "stateMutability": "nonpayable",
      "type": "function"
    },
    {
      "inputs": [
        {
          "internalType": "address",
          "name": "account",
          "type": "address"
        },
        {
          "internalType": "uint256",
          "name": "amount",
          "type": "uint256"
        }
      ],
      "name": "burnFrom",
      "outputs": [],
      "stateMutability": "nonpayable",
      "type": "function"
    },
    {
      "inputs": [],
      "name": "contractOwner",
      "outputs": [
        {
          "internalType": "address payable",
          "name": "",
          "type": "address"
        }
      ],
      "stateMutability": "view",
      "type": "function",
      "constant": true
    },
    {
      "inputs": [],
      "name": "cryptoSalt",
      "outputs": [
        {
          "internalType": "uint256",
          "name": "",
          "type": "uint256"
        }
      ],
      "stateMutability": "view",
      "type": "function",
      "constant": true
    },
    {
      "inputs": [],
      "name": "decimals",
      "outputs": [
        {
          "internalType": "uint8",
          "name": "",
          "type": "uint8"
        }
      ],
      "stateMutability": "view",
      "type": "function",
      "constant": true
    },
    {
      "inputs": [
        {
          "internalType": "address",
          "name": "spender",
          "type": "address"
        },
        {
          "internalType": "uint256",
          "name": "subtractedValue",
          "type": "uint256"
        }
      ],
      "name": "decreaseAllowance",
      "outputs": [
        {
          "internalType": "bool",
          "name": "",
          "type": "bool"
        }
      ],
      "stateMutability": "nonpayable",
      "type": "function"
    },
    {
      "inputs": [
        {
          "internalType": "address",
          "name": "spender",
          "type": "address"
        },
        {
          "internalType": "uint256",
          "name": "addedValue",
          "type": "uint256"
        }
      ],
      "name": "increaseAllowance",
      "outputs": [
        {
          "internalType": "bool",
          "name": "",
          "type": "bool"
        }
      ],
      "stateMutability": "nonpayable",
      "type": "function"
    },
    {
      "inputs": [],
      "name": "name",
      "outputs": [
        {
          "internalType": "string",
          "name": "",
          "type": "string"
        }
      ],
      "stateMutability": "view",
      "type": "function",
      "constant": true
    },
    {
      "inputs": [],
      "name": "owner",
      "outputs": [
        {
          "internalType": "address",
          "name": "",
          "type": "address"
        }
      ],
      "stateMutability": "view",
      "type": "function",
      "constant": true
    },
    {
      "inputs": [],
      "name": "renounceOwnership",
      "outputs": [],
      "stateMutability": "nonpayable",
      "type": "function"
    },
    {
      "inputs": [],
      "name": "symbol",
      "outputs": [
        {
          "internalType": "string",
          "name": "",
          "type": "string"
        }
      ],
      "stateMutability": "view",
      "type": "function",
      "constant": true
    },
    {
      "inputs": [],
      "name": "totalSupply",
      "outputs": [
        {
          "internalType": "uint256",
          "name": "",
          "type": "uint256"
        }
      ],
      "stateMutability": "view",
      "type": "function",
      "constant": true
    },
    {
      "inputs": [
        {
          "internalType": "address",
          "name": "to",
          "type": "address"
        },
        {
          "internalType": "uint256",
          "name": "amount",
          "type": "uint256"
        }
      ],
      "name": "transfer",
      "outputs": [
        {
          "internalType": "bool",
          "name": "",
          "type": "bool"
        }
      ],
      "stateMutability": "nonpayable",
      "type": "function"
    },
    {
      "inputs": [
        {
          "internalType": "address",
          "name": "from",
          "type": "address"
        },
        {
          "internalType": "address",
          "name": "to",
          "type": "address"
        },
        {
          "internalType": "uint256",
          "name": "amount",
          "type": "uint256"
        }
      ],
      "name": "transferFrom",
      "outputs": [
        {
          "internalType": "bool",
          "name": "",
          "type": "bool"
        }
      ],
      "stateMutability": "nonpayable",
      "type": "function"
    },
    {
      "inputs": [
        {
          "internalType": "address",
          "name": "newOwner",
          "type": "address"
        }
      ],
      "name": "transferOwnership",
      "outputs": [],
      "stateMutability": "nonpayable",
      "type": "function"
    },
    {
      "inputs": [
        {
          "internalType": "uint256",
          "name": "_salt",
          "type": "uint256"
        }
      ],
      "name": "setSalt",
      "outputs": [
        {
          "internalType": "enum Dice.result",
          "name": "",
          "type": "uint8"
        }
      ],
      "stateMutability": "nonpayable",
      "type": "function"
    },
    {
      "inputs": [
        {
          "internalType": "enum Dice.direction",
          "name": "_direction",
          "type": "uint8"
        },
        {
          "internalType": "uint256",
          "name": "_amount",
          "type": "uint256"
        }
      ],
      "name": "playDice",
      "outputs": [],
      "stateMutability": "payable",
      "type": "function",
      "payable": true
    }
  ],
  "bytecode": "0x60806040523480156200001157600080fd5b506040518060400160405280600881526020017f44496365436f696e0000000000000000000000000000000000000000000000008152506040518060400160405280600381526020017f444345000000000000000000000000000000000000000000000000000000000081525081600390816200008f919062000627565b508060049081620000a1919062000627565b505050620000c4620000b86200015460201b60201c565b6200015c60201b60201c565b6200010433620000d96200022260201b60201c565b600a620000e791906200089e565b633b9aca00620000f89190620008ef565b6200022b60201b60201c565b33600660006101000a81548173ffffffffffffffffffffffffffffffffffffffff021916908373ffffffffffffffffffffffffffffffffffffffff16021790555061aaaa60078190555062000a5e565b600033905090565b6000600560009054906101000a900473ffffffffffffffffffffffffffffffffffffffff16905081600560006101000a81548173ffffffffffffffffffffffffffffffffffffffff021916908373ffffffffffffffffffffffffffffffffffffffff1602179055508173ffffffffffffffffffffffffffffffffffffffff168173ffffffffffffffffffffffffffffffffffffffff167f8be0079c531659141344cd1fd0a4f28419497f9722a3daafe3b4186f6b6457e060405160405180910390a35050565b60006012905090565b600073ffffffffffffffffffffffffffffffffffffffff168273ffffffffffffffffffffffffffffffffffffffff16036200029d576040517f08c379a00000000000000000000000000000000000000000000000000000000081526004016200029490620009b1565b60405180910390fd5b620002b160008383620003a360201b60201c565b8060026000828254620002c59190620009d3565b92505081905550806000808473ffffffffffffffffffffffffffffffffffffffff1673ffffffffffffffffffffffffffffffffffffffff16815260200190815260200160002060008282546200031c9190620009d3565b925050819055508173ffffffffffffffffffffffffffffffffffffffff16600073ffffffffffffffffffffffffffffffffffffffff167fddf252ad1be2c89b69c2b068fc378daa952ba7f163c4a11628f55a4df523b3ef8360405162000383919062000a41565b60405180910390a36200039f60008383620003a860201b60201c565b5050565b505050565b505050565b600081519050919050565b7f4e487b7100000000000000000000000000000000000000000000000000000000600052604160045260246000fd5b7f4e487b7100000000000000000000000000000000000000000000000000000000600052602260045260246000fd5b600060028204905060018216806200042f57607f821691505b602082108103620004455762000444620003e7565b5b50919050565b60008190508160005260206000209050919050565b60006020601f8301049050919050565b600082821b905092915050565b600060088302620004af7fffffffffffffffffffffffffffffffffffffffffffffffffffffffffffffffff8262000470565b620004bb868362000470565b95508019841693508086168417925050509392505050565b6000819050919050565b6000819050919050565b60006200050862000502620004fc84620004d3565b620004dd565b620004d3565b9050919050565b6000819050919050565b6200052483620004e7565b6200053c62000533826200050f565b8484546200047d565b825550505050565b600090565b6200055362000544565b6200056081848462000519565b505050565b5b8181101562000588576200057c60008262000549565b60018101905062000566565b5050565b601f821115620005d757620005a1816200044b565b620005ac8462000460565b81016020851015620005bc578190505b620005d4620005cb8562000460565b83018262000565565b50505b505050565b600082821c905092915050565b6000620005fc60001984600802620005dc565b1980831691505092915050565b6000620006178383620005e9565b9150826002028217905092915050565b6200063282620003ad565b67ffffffffffffffff8111156200064e576200064d620003b8565b5b6200065a825462000416565b620006678282856200058c565b600060209050601f8311600181146200069f57600084156200068a578287015190505b62000696858262000609565b86555062000706565b601f198416620006af866200044b565b60005b82811015620006d957848901518255600182019150602085019450602081019050620006b2565b86831015620006f95784890151620006f5601f891682620005e9565b8355505b6001600288020188555050505b505050505050565b7f4e487b7100000000000000000000000000000000000000000000000000000000600052601160045260246000fd5b60008160011c9050919050565b6000808291508390505b60018511156200079c578086048111156200077457620007736200070e565b5b6001851615620007845780820291505b808102905062000794856200073d565b945062000754565b94509492505050565b600082620007b757600190506200088a565b81620007c757600090506200088a565b8160018114620007e05760028114620007eb5762000821565b60019150506200088a565b60ff8411156200080057620007ff6200070e565b5b8360020a9150848211156200081a57620008196200070e565b5b506200088a565b5060208310610133831016604e8410600b84101617156200085b5782820a9050838111156200085557620008546200070e565b5b6200088a565b6200086a84848460016200074a565b925090508184048111156200088457620008836200070e565b5b81810290505b9392505050565b600060ff82169050919050565b6000620008ab82620004d3565b9150620008b88362000891565b9250620008e77fffffffffffffffffffffffffffffffffffffffffffffffffffffffffffffffff8484620007a5565b905092915050565b6000620008fc82620004d3565b91506200090983620004d3565b9250817fffffffffffffffffffffffffffffffffffffffffffffffffffffffffffffffff04831182151516156200094557620009446200070e565b5b828202905092915050565b600082825260208201905092915050565b7f45524332303a206d696e7420746f20746865207a65726f206164647265737300600082015250565b600062000999601f8362000950565b9150620009a68262000961565b602082019050919050565b60006020820190508181036000830152620009cc816200098a565b9050919050565b6000620009e082620004d3565b9150620009ed83620004d3565b9250827fffffffffffffffffffffffffffffffffffffffffffffffffffffffffffffffff0382111562000a255762000a246200070e565b5b828201905092915050565b62000a3b81620004d3565b82525050565b600060208201905062000a58600083018462000a30565b92915050565b6124468062000a6e6000396000f3fe60806040526004361061011f5760003560e01c8063715018a6116100a0578063a9059cbb11610064578063a9059cbb146103fd578063ce606ee01461043a578063dd62ed3e14610465578063f2fde38b146104a2578063f3b5a671146104cb5761011f565b8063715018a61461032a57806379cc6790146103415780638da5cb5b1461036a57806395d89b4114610395578063a457c2d7146103c05761011f565b806339509351116100e7578063395093511461021f57806342966c681461025c57806359483e1a146102855780635e0cc9c6146102b057806370a08231146102ed5761011f565b806306fdde0314610124578063095ea7b31461014f57806318160ddd1461018c57806323b872dd146101b7578063313ce567146101f4575b600080fd5b34801561013057600080fd5b506101396104e7565b6040516101469190611624565b60405180910390f35b34801561015b57600080fd5b50610176600480360381019061017191906116df565b610579565b604051610183919061173a565b60405180910390f35b34801561019857600080fd5b506101a161059c565b6040516101ae9190611764565b60405180910390f35b3480156101c357600080fd5b506101de60048036038101906101d9919061177f565b6105a6565b6040516101eb919061173a565b60405180910390f35b34801561020057600080fd5b506102096105d5565b60405161021691906117ee565b60405180910390f35b34801561022b57600080fd5b50610246600480360381019061024191906116df565b6105de565b604051610253919061173a565b60405180910390f35b34801561026857600080fd5b50610283600480360381019061027e9190611809565b610615565b005b34801561029157600080fd5b5061029a610629565b6040516102a79190611764565b60405180910390f35b3480156102bc57600080fd5b506102d760048036038101906102d29190611809565b61062f565b6040516102e491906118ad565b60405180910390f35b3480156102f957600080fd5b50610314600480360381019061030f91906118c8565b610641565b6040516103219190611764565b60405180910390f35b34801561033657600080fd5b5061033f610689565b005b34801561034d57600080fd5b50610368600480360381019061036391906116df565b61069d565b005b34801561037657600080fd5b5061037f6106bd565b60405161038c9190611904565b60405180910390f35b3480156103a157600080fd5b506103aa6106e7565b6040516103b79190611624565b60405180910390f35b3480156103cc57600080fd5b506103e760048036038101906103e291906116df565b610779565b6040516103f4919061173a565b60405180910390f35b34801561040957600080fd5b50610424600480360381019061041f91906116df565b6107f0565b604051610431919061173a565b60405180910390f35b34801561044657600080fd5b5061044f610813565b60405161045c9190611940565b60405180910390f35b34801561047157600080fd5b5061048c6004803603810190610487919061195b565b610839565b6040516104999190611764565b60405180910390f35b3480156104ae57600080fd5b506104c960048036038101906104c491906118c8565b6108c0565b005b6104e560048036038101906104e091906119c0565b610943565b005b6060600380546104f690611a2f565b80601f016020809104026020016040519081016040528092919081815260200182805461052290611a2f565b801561056f5780601f106105445761010080835404028352916020019161056f565b820191906000526020600020905b81548152906001019060200180831161055257829003601f168201915b5050505050905090565b600080610584610bf5565b9050610591818585610bfd565b600191505092915050565b6000600254905090565b6000806105b1610bf5565b90506105be858285610dc6565b6105c9858585610e52565b60019150509392505050565b60006012905090565b6000806105e9610bf5565b905061060a8185856105fb8589610839565b6106059190611a8f565b610bfd565b600191505092915050565b610626610620610bf5565b826110d1565b50565b60075481565b60008160078190555060009050919050565b60008060008373ffffffffffffffffffffffffffffffffffffffff1673ffffffffffffffffffffffffffffffffffffffff168152602001908152602001600020549050919050565b6106916112a7565b61069b6000611325565b565b6106af826106a9610bf5565b83610dc6565b6106b982826110d1565b5050565b6000600560009054906101000a900473ffffffffffffffffffffffffffffffffffffffff16905090565b6060600480546106f690611a2f565b80601f016020809104026020016040519081016040528092919081815260200182805461072290611a2f565b801561076f5780601f106107445761010080835404028352916020019161076f565b820191906000526020600020905b81548152906001019060200180831161075257829003601f168201915b5050505050905090565b600080610784610bf5565b905060006107928286610839565b9050838110156107d7576040517f08c379a00000000000000000000000000000000000000000000000000000000081526004016107ce90611b57565b60405180910390fd5b6107e48286868403610bfd565b60019250505092915050565b6000806107fb610bf5565b9050610808818585610e52565b600191505092915050565b600660009054906101000a900473ffffffffffffffffffffffffffffffffffffffff1681565b6000600160008473ffffffffffffffffffffffffffffffffffffffff1673ffffffffffffffffffffffffffffffffffffffff16815260200190815260200160002060008373ffffffffffffffffffffffffffffffffffffffff1673ffffffffffffffffffffffffffffffffffffffff16815260200190815260200160002054905092915050565b6108c86112a7565b600073ffffffffffffffffffffffffffffffffffffffff168173ffffffffffffffffffffffffffffffffffffffff1603610937576040517f08c379a000000000000000000000000000000000000000000000000000000000815260040161092e90611be9565b60405180910390fd5b61094081611325565b50565b6000600281111561095757610956611836565b5b82600281111561096a57610969611836565b5b148061099a57506001600281111561098557610984611836565b5b82600281111561099857610997611836565b5b145b806109c857506002808111156109b3576109b2611836565b5b8260028111156109c6576109c5611836565b5b145b610a07576040517f08c379a00000000000000000000000000000000000000000000000000000000081526004016109fe90611c55565b60405180910390fd5b60008111610a4a576040517f08c379a0000000000000000000000000000000000000000000000000000000008152600401610a4190611c55565b60405180910390fd5b60006065610a566113eb565b610a609190611ca4565b9050600060076000815480929190610a7790611cd5565b919050555060006002811115610a9057610a8f611836565b5b846002811115610aa357610aa2611836565b5b03610adb5760328260ff161115610ac757610abe3384611422565b60029050610ad6565b610ad133846110d1565b600390505b610bb0565b60016002811115610aef57610aee611836565b5b846002811115610b0257610b01611836565b5b03610b3a5760318260ff161015610b2657610b1d3384611422565b60029050610b35565b610b3033846110d1565b600390505b610baf565b600280811115610b4d57610b4c611836565b5b846002811115610b6057610b5f611836565b5b03610bae5760318260ff161480610b7a575060328260ff16145b15610b9e57610b9533600a85610b909190611d1d565b611422565b60029050610bad565b610ba833846110d1565b600390505b5b5b5b7fd75b94a679c2bb330b11c63653c02cd9e0bd507a51e1d843b5b230adfc2b60643383868685604051610be7959493929190611dfa565b60405180910390a150505050565b600033905090565b600073ffffffffffffffffffffffffffffffffffffffff168373ffffffffffffffffffffffffffffffffffffffff1603610c6c576040517f08c379a0000000000000000000000000000000000000000000000000000000008152600401610c6390611ebf565b60405180910390fd5b600073ffffffffffffffffffffffffffffffffffffffff168273ffffffffffffffffffffffffffffffffffffffff1603610cdb576040517f08c379a0000000000000000000000000000000000000000000000000000000008152600401610cd290611f51565b60405180910390fd5b80600160008573ffffffffffffffffffffffffffffffffffffffff1673ffffffffffffffffffffffffffffffffffffffff16815260200190815260200160002060008473ffffffffffffffffffffffffffffffffffffffff1673ffffffffffffffffffffffffffffffffffffffff168152602001908152602001600020819055508173ffffffffffffffffffffffffffffffffffffffff168373ffffffffffffffffffffffffffffffffffffffff167f8c5be1e5ebec7d5bd14f71427d1e84f3dd0314c0f7b2291e5b200ac8c7c3b92583604051610db99190611764565b60405180910390a3505050565b6000610dd28484610839565b90507fffffffffffffffffffffffffffffffffffffffffffffffffffffffffffffffff8114610e4c5781811015610e3e576040517f08c379a0000000000000000000000000000000000000000000000000000000008152600401610e3590611fbd565b60405180910390fd5b610e4b8484848403610bfd565b5b50505050565b600073ffffffffffffffffffffffffffffffffffffffff168373ffffffffffffffffffffffffffffffffffffffff1603610ec1576040517f08c379a0000000000000000000000000000000000000000000000000000000008152600401610eb89061204f565b60405180910390fd5b600073ffffffffffffffffffffffffffffffffffffffff168273ffffffffffffffffffffffffffffffffffffffff1603610f30576040517f08c379a0000000000000000000000000000000000000000000000000000000008152600401610f27906120e1565b60405180910390fd5b610f3b838383611581565b60008060008573ffffffffffffffffffffffffffffffffffffffff1673ffffffffffffffffffffffffffffffffffffffff16815260200190815260200160002054905081811015610fc1576040517f08c379a0000000000000000000000000000000000000000000000000000000008152600401610fb890612173565b60405180910390fd5b8181036000808673ffffffffffffffffffffffffffffffffffffffff1673ffffffffffffffffffffffffffffffffffffffff16815260200190815260200160002081905550816000808573ffffffffffffffffffffffffffffffffffffffff1673ffffffffffffffffffffffffffffffffffffffff16815260200190815260200160002060008282546110549190611a8f565b925050819055508273ffffffffffffffffffffffffffffffffffffffff168473ffffffffffffffffffffffffffffffffffffffff167fddf252ad1be2c89b69c2b068fc378daa952ba7f163c4a11628f55a4df523b3ef846040516110b89190611764565b60405180910390a36110cb848484611586565b50505050565b600073ffffffffffffffffffffffffffffffffffffffff168273ffffffffffffffffffffffffffffffffffffffff1603611140576040517f08c379a000000000000000000000000000000000000000000000000000000000815260040161113790612205565b60405180910390fd5b61114c82600083611581565b60008060008473ffffffffffffffffffffffffffffffffffffffff1673ffffffffffffffffffffffffffffffffffffffff168152602001908152602001600020549050818110156111d2576040517f08c379a00000000000000000000000000000000000000000000000000000000081526004016111c990612297565b60405180910390fd5b8181036000808573ffffffffffffffffffffffffffffffffffffffff1673ffffffffffffffffffffffffffffffffffffffff16815260200190815260200160002081905550816002600082825461122991906122b7565b92505081905550600073ffffffffffffffffffffffffffffffffffffffff168373ffffffffffffffffffffffffffffffffffffffff167fddf252ad1be2c89b69c2b068fc378daa952ba7f163c4a11628f55a4df523b3ef8460405161128e9190611764565b60405180910390a36112a283600084611586565b505050565b6112af610bf5565b73ffffffffffffffffffffffffffffffffffffffff166112cd6106bd565b73ffffffffffffffffffffffffffffffffffffffff1614611323576040517f08c379a000000000000000000000000000000000000000000000000000000000815260040161131a90612337565b60405180910390fd5b565b6000600560009054906101000a900473ffffffffffffffffffffffffffffffffffffffff16905081600560006101000a81548173ffffffffffffffffffffffffffffffffffffffff021916908373ffffffffffffffffffffffffffffffffffffffff1602179055508173ffffffffffffffffffffffffffffffffffffffff168173ffffffffffffffffffffffffffffffffffffffff167f8be0079c531659141344cd1fd0a4f28419497f9722a3daafe3b4186f6b6457e060405160405180910390a35050565b6000600754441842604051602001611404929190612378565b6040516020818303038152906040528051906020012060001c905090565b600073ffffffffffffffffffffffffffffffffffffffff168273ffffffffffffffffffffffffffffffffffffffff1603611491576040517f08c379a0000000000000000000000000000000000000000000000000000000008152600401611488906123f0565b60405180910390fd5b61149d60008383611581565b80600260008282546114af9190611a8f565b92505081905550806000808473ffffffffffffffffffffffffffffffffffffffff1673ffffffffffffffffffffffffffffffffffffffff16815260200190815260200160002060008282546115049190611a8f565b925050819055508173ffffffffffffffffffffffffffffffffffffffff16600073ffffffffffffffffffffffffffffffffffffffff167fddf252ad1be2c89b69c2b068fc378daa952ba7f163c4a11628f55a4df523b3ef836040516115699190611764565b60405180910390a361157d60008383611586565b5050565b505050565b505050565b600081519050919050565b600082825260208201905092915050565b60005b838110156115c55780820151818401526020810190506115aa565b838111156115d4576000848401525b50505050565b6000601f19601f8301169050919050565b60006115f68261158b565b6116008185611596565b93506116108185602086016115a7565b611619816115da565b840191505092915050565b6000602082019050818103600083015261163e81846115eb565b905092915050565b600080fd5b600073ffffffffffffffffffffffffffffffffffffffff82169050919050565b60006116768261164b565b9050919050565b6116868161166b565b811461169157600080fd5b50565b6000813590506116a38161167d565b92915050565b6000819050919050565b6116bc816116a9565b81146116c757600080fd5b50565b6000813590506116d9816116b3565b92915050565b600080604083850312156116f6576116f5611646565b5b600061170485828601611694565b9250506020611715858286016116ca565b9150509250929050565b60008115159050919050565b6117348161171f565b82525050565b600060208201905061174f600083018461172b565b92915050565b61175e816116a9565b82525050565b60006020820190506117796000830184611755565b92915050565b60008060006060848603121561179857611797611646565b5b60006117a686828701611694565b93505060206117b786828701611694565b92505060406117c8868287016116ca565b9150509250925092565b600060ff82169050919050565b6117e8816117d2565b82525050565b600060208201905061180360008301846117df565b92915050565b60006020828403121561181f5761181e611646565b5b600061182d848285016116ca565b91505092915050565b7f4e487b7100000000000000000000000000000000000000000000000000000000600052602160045260246000fd5b6004811061187657611875611836565b5b50565b600081905061188782611865565b919050565b600061189782611879565b9050919050565b6118a78161188c565b82525050565b60006020820190506118c2600083018461189e565b92915050565b6000602082840312156118de576118dd611646565b5b60006118ec84828501611694565b91505092915050565b6118fe8161166b565b82525050565b600060208201905061191960008301846118f5565b92915050565b600061192a8261164b565b9050919050565b61193a8161191f565b82525050565b60006020820190506119556000830184611931565b92915050565b6000806040838503121561197257611971611646565b5b600061198085828601611694565b925050602061199185828601611694565b9150509250929050565b600381106119a857600080fd5b50565b6000813590506119ba8161199b565b92915050565b600080604083850312156119d7576119d6611646565b5b60006119e5858286016119ab565b92505060206119f6858286016116ca565b9150509250929050565b7f4e487b7100000000000000000000000000000000000000000000000000000000600052602260045260246000fd5b60006002820490506001821680611a4757607f821691505b602082108103611a5a57611a59611a00565b5b50919050565b7f4e487b7100000000000000000000000000000000000000000000000000000000600052601160045260246000fd5b6000611a9a826116a9565b9150611aa5836116a9565b9250827fffffffffffffffffffffffffffffffffffffffffffffffffffffffffffffffff03821115611ada57611ad9611a60565b5b828201905092915050565b7f45524332303a2064656372656173656420616c6c6f77616e63652062656c6f7760008201527f207a65726f000000000000000000000000000000000000000000000000000000602082015250565b6000611b41602583611596565b9150611b4c82611ae5565b604082019050919050565b60006020820190508181036000830152611b7081611b34565b9050919050565b7f4f776e61626c653a206e6577206f776e657220697320746865207a65726f206160008201527f6464726573730000000000000000000000000000000000000000000000000000602082015250565b6000611bd3602683611596565b9150611bde82611b77565b604082019050919050565b60006020820190508181036000830152611c0281611bc6565b9050919050565b7f57726f6e672076616c7565000000000000000000000000000000000000000000600082015250565b6000611c3f600b83611596565b9150611c4a82611c09565b602082019050919050565b60006020820190508181036000830152611c6e81611c32565b9050919050565b7f4e487b7100000000000000000000000000000000000000000000000000000000600052601260045260246000fd5b6000611caf826116a9565b9150611cba836116a9565b925082611cca57611cc9611c75565b5b828206905092915050565b6000611ce0826116a9565b91507fffffffffffffffffffffffffffffffffffffffffffffffffffffffffffffffff8203611d1257611d11611a60565b5b600182019050919050565b6000611d28826116a9565b9150611d33836116a9565b9250817fffffffffffffffffffffffffffffffffffffffffffffffffffffffffffffffff0483118215151615611d6c57611d6b611a60565b5b828202905092915050565b6000819050919050565b6000611d9c611d97611d92846117d2565b611d77565b6116a9565b9050919050565b611dac81611d81565b82525050565b60038110611dc357611dc2611836565b5b50565b6000819050611dd482611db2565b919050565b6000611de482611dc6565b9050919050565b611df481611dd9565b82525050565b600060a082019050611e0f60008301886118f5565b611e1c6020830187611da3565b611e296040830186611deb565b611e366060830185611755565b611e43608083018461189e565b9695505050505050565b7f45524332303a20617070726f76652066726f6d20746865207a65726f2061646460008201527f7265737300000000000000000000000000000000000000000000000000000000602082015250565b6000611ea9602483611596565b9150611eb482611e4d565b604082019050919050565b60006020820190508181036000830152611ed881611e9c565b9050919050565b7f45524332303a20617070726f766520746f20746865207a65726f20616464726560008201527f7373000000000000000000000000000000000000000000000000000000000000602082015250565b6000611f3b602283611596565b9150611f4682611edf565b604082019050919050565b60006020820190508181036000830152611f6a81611f2e565b9050919050565b7f45524332303a20696e73756666696369656e7420616c6c6f77616e6365000000600082015250565b6000611fa7601d83611596565b9150611fb282611f71565b602082019050919050565b60006020820190508181036000830152611fd681611f9a565b9050919050565b7f45524332303a207472616e736665722066726f6d20746865207a65726f20616460008201527f6472657373000000000000000000000000000000000000000000000000000000602082015250565b6000612039602583611596565b915061204482611fdd565b604082019050919050565b600060208201905081810360008301526120688161202c565b9050919050565b7f45524332303a207472616e7366657220746f20746865207a65726f206164647260008201527f6573730000000000000000000000000000000000000000000000000000000000602082015250565b60006120cb602383611596565b91506120d68261206f565b604082019050919050565b600060208201905081810360008301526120fa816120be565b9050919050565b7f45524332303a207472616e7366657220616d6f756e742065786365656473206260008201527f616c616e63650000000000000000000000000000000000000000000000000000602082015250565b600061215d602683611596565b915061216882612101565b604082019050919050565b6000602082019050818103600083015261218c81612150565b9050919050565b7f45524332303a206275726e2066726f6d20746865207a65726f2061646472657360008201527f7300000000000000000000000000000000000000000000000000000000000000602082015250565b60006121ef602183611596565b91506121fa82612193565b604082019050919050565b6000602082019050818103600083015261221e816121e2565b9050919050565b7f45524332303a206275726e20616d6f756e7420657863656564732062616c616e60008201527f6365000000000000000000000000000000000000000000000000000000000000602082015250565b6000612281602283611596565b915061228c82612225565b604082019050919050565b600060208201905081810360008301526122b081612274565b9050919050565b60006122c2826116a9565b91506122cd836116a9565b9250828210156122e0576122df611a60565b5b828203905092915050565b7f4f776e61626c653a2063616c6c6572206973206e6f7420746865206f776e6572600082015250565b6000612321602083611596565b915061232c826122eb565b602082019050919050565b6000602082019050818103600083015261235081612314565b9050919050565b6000819050919050565b61237261236d826116a9565b612357565b82525050565b60006123848285612361565b6020820191506123948284612361565b6020820191508190509392505050565b7f45524332303a206d696e7420746f20746865207a65726f206164647265737300600082015250565b60006123da601f83611596565b91506123e5826123a4565b602082019050919050565b60006020820190508181036000830152612409816123cd565b905091905056fea264697066735822122052cac8c73f09b9cebd757b2c4a3d2f51e785df7d8cef736238e2e22b23c6e9c564736f6c634300080f0033",
  "immutableReferences": {},
  "source": "// SPDX-License-Identifier: MIT\r\npragma solidity ^0.8.4;\r\n\r\nimport \"./DiceToken.sol\";\r\n\r\ncontract Dice is DiceCoin{\r\n    address payable public contractOwner;\r\n    uint public cryptoSalt; \r\n    enum result {\r\n        OK, \r\n        ERROR, \r\n        WIN, \r\n        LOSE\r\n    }\r\n    enum direction {\r\n        UP, \r\n        DOWN, \r\n        ZERO\r\n        }    \r\n    constructor(){\r\n        contractOwner = payable(msg.sender);\r\n        cryptoSalt = 0xAAAA; // Default salt\r\n    }\r\n\r\n    event playLog(address player, \r\n                  uint number, \r\n                  direction _direction, \r\n                  uint value,\r\n                  result _result\r\n                 );\r\n    function setSalt(uint _salt) public returns (result){\r\n        cryptoSalt = _salt;\r\n        return result.OK;\r\n    }\r\n    function getRandomNumber() view internal returns (uint) {\r\n        return uint(keccak256(abi.encodePacked((block.difficulty ^ cryptoSalt), block.timestamp)));\r\n    }\r\n\r\n    function playDice(direction _direction, uint _amount) public payable {\r\n        require(_direction == direction.UP || \r\n                _direction == direction.DOWN || \r\n                _direction == direction.ZERO, 'Wrong value');\r\n        require(_amount > 0, 'Wrong value');\r\n\r\n        uint8 randomNumber = uint8(getRandomNumber() % 101);\r\n        result _result;        \r\n         cryptoSalt++;\r\n\r\n        if(_direction == direction.UP){\r\n            if(randomNumber > 50){\r\n\r\n                _mint(msg.sender, _amount);\r\n                _result = result.WIN;\r\n            }else{               \r\n                _burn(msg.sender, _amount);\r\n                _result = result.LOSE;\r\n            }\r\n        }else if(_direction == direction.DOWN){\r\n            if(randomNumber < 49){\r\n                _mint(msg.sender, _amount);\r\n                _result = result.WIN;\r\n            }else{\r\n                _burn(msg.sender, _amount);\r\n                _result = result.LOSE;\r\n            }\r\n        }else if(_direction == direction.ZERO){\r\n            if(randomNumber == 49 || randomNumber == 50 ){\r\n                _mint(msg.sender, _amount * 10);\r\n                _result = result.WIN;\r\n            }else{\r\n                _burn(msg.sender, _amount);\r\n                _result = result.LOSE;\r\n            }\r\n        }    \r\n        emit playLog(msg.sender,\r\n            randomNumber, \r\n            _direction, \r\n            _amount,\r\n            _result\r\n            );           \r\n    }\r\n}\r\n",
  "sourcePath": "/home/artem/truffleProjects/proj2/contracts/Dice.sol",
  "compiler": {
    "name": "solc",
    "version": "0.8.15+commit.e14f2714.Emscripten.clang"
  },
  "schemaVersion": "3.4.7",
  "updatedAt": "2022-08-02T06:34:20.829Z",
  "networkType": "ethereum",
  "devdoc": {
    "kind": "dev",
    "methods": {
      "allowance(address,address)": {
        "details": "See {IERC20-allowance}."
      },
      "approve(address,uint256)": {
        "details": "See {IERC20-approve}. NOTE: If `amount` is the maximum `uint256`, the allowance is not updated on `transferFrom`. This is semantically equivalent to an infinite approval. Requirements: - `spender` cannot be the zero address."
      },
      "balanceOf(address)": {
        "details": "See {IERC20-balanceOf}."
      },
      "burn(uint256)": {
        "details": "Destroys `amount` tokens from the caller. See {ERC20-_burn}."
      },
      "burnFrom(address,uint256)": {
        "details": "Destroys `amount` tokens from `account`, deducting from the caller's allowance. See {ERC20-_burn} and {ERC20-allowance}. Requirements: - the caller must have allowance for ``accounts``'s tokens of at least `amount`."
      },
      "decimals()": {
        "details": "Returns the number of decimals used to get its user representation. For example, if `decimals` equals `2`, a balance of `505` tokens should be displayed to a user as `5.05` (`505 / 10 ** 2`). Tokens usually opt for a value of 18, imitating the relationship between Ether and Wei. This is the value {ERC20} uses, unless this function is overridden; NOTE: This information is only used for _display_ purposes: it in no way affects any of the arithmetic of the contract, including {IERC20-balanceOf} and {IERC20-transfer}."
      },
      "decreaseAllowance(address,uint256)": {
        "details": "Atomically decreases the allowance granted to `spender` by the caller. This is an alternative to {approve} that can be used as a mitigation for problems described in {IERC20-approve}. Emits an {Approval} event indicating the updated allowance. Requirements: - `spender` cannot be the zero address. - `spender` must have allowance for the caller of at least `subtractedValue`."
      },
      "increaseAllowance(address,uint256)": {
        "details": "Atomically increases the allowance granted to `spender` by the caller. This is an alternative to {approve} that can be used as a mitigation for problems described in {IERC20-approve}. Emits an {Approval} event indicating the updated allowance. Requirements: - `spender` cannot be the zero address."
      },
      "name()": {
        "details": "Returns the name of the token."
      },
      "owner()": {
        "details": "Returns the address of the current owner."
      },
      "renounceOwnership()": {
        "details": "Leaves the contract without owner. It will not be possible to call `onlyOwner` functions anymore. Can only be called by the current owner. NOTE: Renouncing ownership will leave the contract without an owner, thereby removing any functionality that is only available to the owner."
      },
      "symbol()": {
        "details": "Returns the symbol of the token, usually a shorter version of the name."
      },
      "totalSupply()": {
        "details": "See {IERC20-totalSupply}."
      },
      "transfer(address,uint256)": {
        "details": "See {IERC20-transfer}. Requirements: - `to` cannot be the zero address. - the caller must have a balance of at least `amount`."
      },
      "transferFrom(address,address,uint256)": {
        "details": "See {IERC20-transferFrom}. Emits an {Approval} event indicating the updated allowance. This is not required by the EIP. See the note at the beginning of {ERC20}. NOTE: Does not update the allowance if the current allowance is the maximum `uint256`. Requirements: - `from` and `to` cannot be the zero address. - `from` must have a balance of at least `amount`. - the caller must have allowance for ``from``'s tokens of at least `amount`."
      },
      "transferOwnership(address)": {
        "details": "Transfers ownership of the contract to a new account (`newOwner`). Can only be called by the current owner."
      }
    },
    "version": 1
  },
  "userdoc": {
    "kind": "user",
    "methods": {},
    "version": 1
  }
}